:100000000219EB7EB30009BEB00D50507EA003A4D0
:100010009000147302003B02003E02005C020041AB
:1000200002005C02004402004702004A02004D0246
:100030000050020053020056020059020A4D020C01
:10004000B9020F350216C2020D5802005F0214A059
:10005000020C14021A2A021CFC0200C702223C02F3
:10006000223C2202221F7A1F01227E3401257E2497
:1000700000007E1B307E3401267E2400007A1B3077
:100080007E3401247E2400007E1B307E3401277ED6
:100090002400007A1B307E3401237E2400007E1B66
:1000A000307E3401287E2400007A1B307E34012209
:1000B0007E2400007E1B307E3401297E2400007ADD
:1000C0001B307E1F01262202223C2202127D5D226D
:1000D000680D5D0078122D220B4068099F11222DBA
:1000E000000B0078F902024A12020D5C800B806856
:1000F00008248150072CB0500A0202522CB0400351
:1001000002024F7C8B5D1178267CB17CA5BE1080ED
:10011000680A5D33780DA5BD80057F1002023C6D35
:100120000080307F017C5B7CB17CA5AD1280245DBA
:10013000337806A5BD80F080E1CA887D41AD437C5F
:10014000B17CA5AD122D1450020B047C5BAD232FA6
:1001500001DA88A42D05BE008040060B807804805B
:10016000982F007C437C507C617C7202022674F8DC
:100170006CAA6E40806E0080BEB0FF68277C837CD6
:10018000975C3B5C7BBF10682AF4400D7C382D15D2
:10019000F45C3B500F0B04800B7C792D35F45C7BB9
:1001A00050020B24BF10680B7CB020E7067CB42003
:1001B000E701B3227EA020800C7EA01080057EA0E7
:1001C000086C556D333392D5500A6E34FFFF6E24A0
:1001D000FFFF0B1CA5EC3340062F11D5F0F6227C57
:1001E000BA247EA2D5137C767C65A5CC92E77C5B95
:1001F000227F707F517E6F014E7E94020002028B3F
:100200004005E47A7BB0227A7BB00B7C222D0092F1
:10021000D50E104E10807D422D445002B2D54E5066
:10022000806C447CB8222C4450120B1C7E40005E33
:10023000507FBE18000078040B806816A2D57CB8E9
:10024000137C4B7CB592E77C5B227E1CFFFF229FD8
:1002500011227E24FF8020D5026C456D3322540F7D
:100260002490D43440D430F30CBEB0414007BEB02B
:100270005B500224204CCC68021BC00B84D38994B1
:100280004CCC680B742012027580F5CA3B6D889FB8
:10029000337CAE7E5BB00B5C7007C37D38DA3B8984
:1002A00094B42569C2F37E5BB00B5CA5F824D0BE84
:1002B000B00A501B7E500A20F60DAC5CA52D7CCBFD
:1002C00070034EF00180DDAC5DA52D7CDB80D52474
:1002D000CFBEB01AA5E850055E00DFD2F3900660ED
:1002E000A3E4936011BCB078F77417934CAB30F66D
:1002F000B34EF08080AEA3E4936010BCB078F77486
:1003000016937C3B7423937C2B89147CB0801374EC
:100310002012027520F205BEC00250F31B6D29B6F3
:1003200000011202750202801B6E691600020B6A40
:1003300000BE08000078087E0400FF7E142286209C
:10034000F21E4CCC681A7F10E47E1B804C88680734
:100350000B1C04BCBD78F2C2F6CA0B12045FDA0BA8
:100360007E0BB060C0CA0B120275DA0B0B0C4CDDB1
:1003700068EE1BD078EA80ADD2F07E101080037E4C
:1003800010085EB05F800AD2F67E100A80057E10EB
:100390000AC2F66D119F117E00201B6C7E6B7030BF
:1003A000F6021A3720F1051B6C7E6B6030F6041ADA
:1003B000261A2430F0051B6D0B6A20A5EC3382F65B
:1003C00092F6500A7CEA9F229F217F127CAE4C4419
:1003D000780F7C457C567C676C772E00F878EF8030
:1003E000122F117CB3337C3B9CB140047C3B0B70DF
:1003F000A5D8EE7CB230E005DAB8C44C3BCA380B65
:10040000207E00207E3000BE18000078C1BE10089B
:10041000780730F404C2F480B5CA287CB2BCBD3879
:10042000027CBD12045FDA28BC2D500A1BD0E4CA3E
:100430002812025E80F07CB213DAB84004C4CAB855
:10044000C4CA28BEF08040095CDD7805A5DA0260E8
:10045000065EF07F12025EDA28A5DADA020280BEBA
:10046000F001680F30F402240220F50620F7033073
:10047000F6010420F229BCBC5025CAB87CBF13B0D9
:10048000E67420501174307C8A5E80F06808120493
:100490009F5EA00F8003120275DAB8BCBC78DB3017
:1004A000F40F7430120275745830F302747812022B
:1004B0007530F605742D020275742B20F5F8742042
:1004C00020F7F3221B6C7E6BB010F1021B6C20F640
:1004D0000B30E704F404D2F27CCB800520E7057CE6
:1004E000DB0202A45EF07F80F81B6E691600020B2F
:1004F0006A0030F0076D221B0A200B0D1B0A8002D8
:10050000028FE46C22BE3007500B7F1F2D312E343A
:10051000FFF77E39B0227CBF20E7A8742E4EF08012
:10052000020275120649403D7CBD7003047CDB125B
:1005300007607C3D4C3368101B307CBE20E4091200
:10054000050270044C3378F07CBD7CD3BEA0FD481E
:100550001CBCAB5818E49CBA2CB31801E47CDB0239
:1005600005EA120649406E7CBD041207607AFBA0C2
:100570007CAE7CBDA2F492F0C2F44002600104247F
:100580000512045F7E30FF0B30120502CA381202DA
:100590005E20F0044CDD6803120516DA38BC3D78A5
:1005A000E6740E12025E742B7EFBA030F707742DEA
:1005B0006EA0FF0BA07AFBA01202757EA00A7EFB44
:1005C000B0847AFBA012025E7EFBB012025E9EF83F
:1005D0000008020280D2F27ED00002033F120649D8
:1005E00040F37CBA2CBD041207607AFBA07CBA7C75
:1005F000AE30E701E40420F4044CDD6805D2F0C21B
:10060000F4042CBD12045F6C337EFBB0601B20E74A
:1006100012147AFBB0120502CA3812025EDA380BE5
:100620003080E6047AFBB01B30120502CA38120291
:100630005E4CDD68071205161BD080E19EF80009AC
:1006400030F0031205160202807CEA7CAF10F7033B
:100650007ED0067CFA1B6E693600020B6A20020609
:10066000A82D2B204C4248232E0053584F44494379
:1006700055502A4E46454700042080010200104094
:10068000287A7F8787148E78C4E9DD622303030309
:10069000030303030304040505054E614E002B49C3
:1006A0004E46002D494E46007D522D557CBE92E6A9
:1006B0007CEB7CBA601F0470287CB5C2E77E040026
:1006C000FF60067E14069AD3227E1406A340047EA1
:1006D00014069ED322DA099F22CA2BCA2BC3CA0949
:1006E000220A0A7E144D10AD109E083AF09E102684
:1006F0007CB5C2E77EA0567C9BA46E54FFFF2E54AF
:10070000C511ACA92D15E4A539CAB8CA1B20E70A42
:10071000120854DA1B1207A3800AF404120854DAF0
:100720001B1200CEDAA87CB5337CB4334E50806CFB
:100730004424822F111478FBDA497407BE400A4022
:10074000099E400ACA0201140BA0CA486C442F112A
:100750007F012F112F112F101478EFCA48CA492298
:100760007F0F20E73ABEB007400274070A0B2D1036
:100770009E1400097E19B02EB0FB501F4C11681753
:10078000E47A19B01B147E19B0047A19B0B40A0BBC
:10079000E47A19B0A5D9ED0BA074017A19B0225EE4
:1007A000E0BF22BE24FFFF6806BE04FFFF780302FD
:1007B000024A12020D5CB00468F57CB8A54868EFE7
:1007C0007CB870039F1122A5B800030202522E00CC
:1007D0008150079C80380702024F9C8050ED0A51DF
:1007E000C2E74D51780302023C7E5400807E901A8D
:1007F0006C0080061B9068142F11BF1040049F10DE
:100800004CAB0330E7EECAA86CAA80E8DA39DA58B4
:100810007C4ABE5080500A1B8068BC2F1150020BCE
:10082000700202263F8000004120000042C8000004
:10083000447A0000461C400047C35000497424001D
:100840004B1896804CBEBC205A0E1BCA6753C21C64
:10085000749DC5AE7C7B600654076816232312087E
:10086000797CB75438680A7F101208761200CE7F60
:1008700001227CB7543803241C6CAA2E5408247E11
:100880004400FF0B2A0069120002227D51AD037D56
:10089000027D21AD052D12AD352D21226D00741084
:1008A0004D00780B4D2278278D317D126D22227DEF
:1008B000437D326D222F112D445002A50FBF1040F1
:1008C000049F100B901478ED7F016D227D34227D02
:1008D000417D138D247D022F004004BD0440049D02
:1008E000040B141478F17D237D317D106D00227F7F
:1008F000701B3468130B347820A2B2E43378057E81
:10090000700180116C77800DA2B3E43378057E709E
:100910000180026C773977000229B7000260030278
:1009200009A829B7000360257E1F001C7937000A3B
:10093000792700087E1F001C7937001279270010E4
:100940009F117937001679270014020A02695700AF
:100950000A694700087E1F001C7F019F02BE081322
:10096000882803020A0269570012694700107F01B4
:100970009F02BE0800C83803020A027937001279C4
:100980002700107E3400031B7A30BE3400037872D7
:100990007F072E140014693000020B0A200B1C790B
:1009A0003000021B0A20805A29B7000370547E1FB2
:1009B000001C7937000E7927000C6917000A6907B7
:1009C00000086937000E6927000C9F10BE181388B5
:1009D00028137E1400041B7A109F007917001A79DF
:1009E000070018801DBE1803E828067E3400028028
:1009F000047E3400011B7A309F117937001A792761
:100A0000001829770002397700030B7A30BE3400D2
:100A1000026806BE34000178337F072E140018697F
:100A20003000020B0A200B1C793000021B0A2069DF
:100A300037001A69270018BE18012C400F6D331BB0
:100A40007A309F117937001A7927001822CAF87E68
:100A5000F300087CBF5480B480167EB3000B703066
:100A60007EB3000A702A7E37000EBE34000268038F
:100A7000020B457CBF540F14681B14683B0BB16814
:100A800003020B457EB3000D70067EB3000C601EA2
:100A9000020B4580197EB30012B4040F7EB3000D23
:100AA0006003020B457EB3000C6003020B457E34ED
:100AB00012717E2400FF807D7EB30012B404067E96
:100AC000B3000D6002807E7E73000C7CA75EA00FD9
:100AD0001B7068362E707F68040B7078687E240067
:100AE000017CBA60053E241478FB7E73001A6C66A4
:100AF0005C754D33680A7E3412737E2400FF8035A6
:100B00007E3412717E2400FF802B7E2400017CBA8B
:100B100060053E241478FB7E73001B6C665C754D8B
:100B200033680A7E3412737E2400FF80087E3412FC
:100B3000717E2400FF7A1F00167E3400027A37008F
:100B4000148007800012223C80031221FEDAF82272
:100B5000CA79740E7E70011221EB74141221D67CB6
:100B6000FB30E60874147E70801221EB7CBF20E01D
:100B700003020C117E1400407E0400017421121B3C
:100B80001B7AB300107E1F01164D237803020C0F51
:100B90006CFF80737EB300111A3B7E0F01162D315E
:100BA0007D207E1BA00A4F2E4400407A91827A81DC
:100BB000837EEBE0BCEA7839047AB300117E7300DF
:100BC000111A372D317D207E1BB0703974146C776B
:100BD0001221EB75F40075DC00E47E34FE077E2400
:100BE000007E7A1BB07E34000A1220E075C7608058
:100BF000FE7E1F01167E1B70BCE778047401800125
:100C0000E47AB300110BF07E730010BC7F3885D2FC
:100C100000DA79227EB30012BEB00268207EB300F3
:100C200008701A7EB3000B70147EB3000D700E7E38
:100C3000B3000C70087E37000E4D33680302223C6F
:100C40007EB3000AB4015F74047AB30012E47AB38D
:100C5000001A7AB3001B740E7E70011221EB74121D
:100C60007E70201221EB74107E70081221EB740E3E
:100C70007E70021221EB74127E70201221EB741030
:100C80007E70081221EB740E7E70011221EB74123B
:100C90006C771221EB74137E70081221EB740E6CCA
:100CA000771221EB801074037AB3001274FF7AB3C9
:100CB000001A7AB3001B0222587EB30012B4042437
:100CC0007EB30008B4021D7EB3000D6003020D5216
:100CD0007EB3000B707C7EB3000A70767E37000E08
:100CE0004D336802806C7E63000C7C765E700F1B57
:100CF00060682F2E607F68040B6078567E240001A8
:100D00007CB760053E241478FB7C656E60FF5E63F3
:100D1000001A7A63001A740E1221EB74117E70406F
:100D200080247E2400017CB760053E241478FB7C7F
:100D3000656E60FF5E63001B7A63001B740E1221F8
:100D4000EB74147E70801221EB740E6C771221EB21
:100D5000800302223C0222587EB300085480BEB0B9
:100D6000806803020DE37EB3000B1BB168191468A1
:100D7000280BB1786E7E34121C7E2400FF7A1F008F
:100D8000167E34001280547E34122E7E2400FF7AA8
:100D90001F00167E34004380427EB3000A14681997
:100DA0001468280BB1783C7E3412187E2400FF7A38
:100DB0001F00167E34000480227E3412757E2400CB
:100DC000FF7A1F00167E34000880107E3411FA7EF0
:100DD0002400FF7A1F00167E34001E7A370014802C
:100DE00005800002223C7E37000EBE3700145004FE
:100DF0007A3700140221FECA3B7A3701457F306DF5
:100E0000337A370148020E8874387AB301477E3747
:100E10000145BE34003850047A73014712207D7EAC
:100E20007301470A572E540003900004F074CF90CA
:100E30000005F07E1701487E3400067E2400011B69
:100E40001A107E7301470A37CA397F137E140008CF
:100E50007E040001121D701BFD7E7301470A372EB0
:100E60003400080A371213727E7301470A372D7354
:100E70007E7301470A272E3701487A3701487E37AB
:100E800001459D327A3701457E3701454D33680370
:100E9000020E08DA3B22CA3B7A3701407F306D33BD
:100EA0007A370143020F2774387AB301427E370143
:100EB00040BE34003850047A7301421220967E738B
:100EC00001420A572E540003900004F074AF9000C2
:100ED00005F07E1701437E3400067E2400011B1AB4
:100EE000107E7301420A37CA397F137E1400087ED0
:100EF000040001121D701BFD7E7301420A372E345F
:100F000000080A371213727E7301420A372D737E6E
:100F10007301420A272E3701437A3701437E370196
:100F2000409D327A3701407E3701404D33680302DD
:100F30000EA7DA3B227EB30012B404247EB300086D
:100F4000B4021D7EB3000D6003020FC87EB3000B18
:100F500070767EB3000A70707E37000E4D336802E3
:100F600080667E63000C7C765E700F1B60682C2EA2
:100F7000607F68040B6078507E2400017CB76005B8
:100F80003E241478FB7C654E63001A7A63001A7461
:100F90000E1221EB74117E701080217E2400017CE2
:100FA000B760053E241478FB7C654E63001B7A63B2
:100FB000001B740E1221EB74147E70201221EB744E
:100FC0000E6C771221EB800302223C0222587F70C4
:100FD00029B7000EB40113E439B7000E6D33793729
:100FE000000A7937000C39B7000F69270008693704
:100FF000000CBD327807740139B7000F227F072E2D
:1010000014000A0B0A300B341B0A3069D70006693A
:10101000C700047F16E41201B469170012690700C3
:10102000101200CE7F0169B7000A7D2BE41201B9CE
:1010300012016E38067E180001800A7D3B6D22BFCA
:1010400016500A9F11793700021B7A20226D3379DE
:1010500037000A7F072E14000C0B0A300B341B0AD2
:101060003022CAF8740E6C771221EB74111221D65B
:101070007CFB30E20F74117C7F5E70FB1221EBE48D
:101080007AB300137CBF30E40A74117C7F4E708009
:101090001221EB7EB3001324FD68461468480BB29E
:1010A00078477CBF30E0427E0800087420121B1B8A
:1010B0007E37000E121BC17A37000E7EB300085433
:1010C0006024E0680D24E0680E2440780F120003CD
:1010D0008017121F568012122283800D12223C802C
:1010E000081213DF8003121594DAF822CA3B7A370C
:1010F00001327F307E3400C87A370137A9C7AF7418
:101100000E7E70011221EB6D337A3701357E270197
:1011100032BE24004008057E704080027C757A73E0
:10112000013474111221D630E0107E3701377D234F
:101130001B247A2701374D3378E87F032E170135BA
:101140007EB301347E70011221C17E7301340A27FF
:101150007D322E3701357A3701357E3701329D32A7
:101160007A3701327E730134BE704050A0D202A99A
:10117000D7AFDA3B2253B2FC43B10374807E34FE16
:10118000077E24007E7A1BB07E34FE077E24007E1C
:101190007E1BB030E0F275DC0075F490E46C7712E1
:1011A00021EB74017E70081221EB74077E703F12F0
:1011B00021EB74097E703F1221EB740B7E700712D5
:1011C00021EB74016C771221EB74027AB30012E404
:1011D0007AB300137AB3001A7AB3001B7E3401008D
:1011E0007E2400C27A1F01397AB3013D7AB3013EF1
:1011F00074087AB3013FA9D7AF221E0353005400ED
:1012000043002000550053004200200053006500B9
:101210007200690061006C000403090412010002FD
:1012200002000040BF3402FF000101020001090278
:1012300043000201008032090400000102020100A3
:1012400005240010010524010001042402020524E4
:10125000060001070582034000FF09040100020A9D
:101260000000000705810240000007050102400060
:1012700000000001000803530054004300CA7BCA69
:101280006BCA5BCA4BCA3BCA2BCA1BCA0BC0D0C0B5
:1012900083C0827EF1FC74061221D67CEB740212AC
:1012A00021D67CCB74041221D67CDB7CBE30E103DA
:1012B0001200CA7CBE30E20312170C7CBC30E00383
:1012C0001210627CBC30E103121C257CBC30E203AE
:1012D000121C7F7CBD30E103120B507CBE30E0035A
:1012E0001200627AF1FCD082D083D0D0DA0BDA1B04
:1012F000DA2BDA3BDA4BDA5BDA6BDA7B329F117A84
:101300001F00357E1800287A1F00397E34999A7E96
:10131000243E997A1F004574017AB300437E34005D
:10132000057A37003D9F117A1F00497E1800287A00
:101330001F004D7E34CCCD7E243F4C7A1F00597A5D
:10134000B300577E3400057A3700519F117A1F0091
:10135000217E1801907A1F00257E34CCCD7E243F5B
:101360004C7A1F00317AB3002F7E3400057A3700A3
:101370002922CA3B7D737E3400C87A370153A9C73E
:10138000AF740E7E70011221EB6D66BE74004028B2
:10139000057E704080027C7F7A73015274111221A5
:1013A000D630E0107E3701537D231B247A2701536A
:1013B0004D3378E87D162E1400007E0400017EB3C4
:1013C00001527E70011221C17E7301520A272D62E3
:1013D0009D72BE704050B4D202A9D7AFDA3B22CA88
:1013E000F8740E6C771221EB74111221D620E153A0
:1013F0007E370014BE34004028057EF04080027C19
:10140000F77E0F00167C7F7420121CAA0A2F7E37ED
:1014100000149D327A3700140A157E1F00162D31F4
:101420007A1F00167E3700144D33780F74117E70CA
:101430000A1221EBE47AB30013800874117E700263
:101440001221EBDAF82275E900A9D7BA75EA004350
:10145000BA8075930075940075910075920075952A
:101460000075960075B10075B20075B30075B400D3
:1014700075C90075CA0075CB0075CC0075E10075A3
:10148000E20012117543AF801212FD121BF61222F8
:101490007712220FD2AF7EB30012B404F9C2C02279
:1014A0007EB30008B480227EB3000B701C7EB300B4
:1014B0000A70167EB3000D70107EB3000C700A7EA9
:1014C00037000EBE340001680302223C7EB30012D6
:1014D000B4040A7E3412737E2400FF80087E341226
:1014E000717E2400FF7A1F00167E3400017A3700D7
:1014F000140221FECA3B7F707CF57CE67CD77CCB56
:10150000CA7B0A366D222F110A1F6D0012088BDA72
:101510000B120E961220967405900004F074A89099
:101520000005F09000067AEBC09000077AEBD090AF
:1015300000087AEBE09000097AEBF07E34000A12A2
:101540001372DA3B227E37005DBE340001781D6DD8
:10155000337A37005D7E3400057A3701557E1800F6
:10156000147E14999A7E043E9912210F7E370079D9
:10157000BE340001781D6D337A3700797E34000562
:101580007A3701577E1800147E14CCCD7E043F4C70
:1015900002212622740E6C771221EB74111221D6CF
:1015A00030E03D7E0F00167420121B1B0A1B7E27A5
:1015B00000149D217A2700147E1F00162D317A1FFA
:1015C00000167E3700144D33780E74117E70481269
:1015D00021EBE47AB300132274117E70400221EBF8
:1015E00022CA797A0F00BD1220AF7453900004F024
:1015F000E4900005F0900006F0900007F07E3400C3
:10160000BD7E2400007A1F014E7E1400087E040077
:10161000017E1F00BD1201F17D732E7400087D371D
:101620000B340A371213727D37DA7922CAF87CFB41
:10163000BEF03B28037EF03B744C900000F07445F4
:10164000900001F07444900002F07428900003F0C0
:101650009000047AEBF00A3FCA397F107E1400052F
:101660007E040001121D701BFD0A3F2E3400050A86
:1016700037121372DAF822CAF87CFBBEF03B28035B
:101680007EF03B744C900000F07445900001F074C3
:1016900044900002F07440900003F09000047AEB54
:1016A000F00A3FCA397F107E1400057E0400011243
:1016B0001D701BFD0A3F2E3400050A37121372DA23
:1016C000F822CAF87EB3000870237EB3000D701DA7
:1016D0007EB3000C70177EB3000B70117EF3000A0E
:1016E000BEF08050087E37000E4D33680512223C54
:1016F0008017E47C7F1221EB4CFF680474038002A6
:1017000074027AB30012122258DAF822E46C7712CB
:1017100021EB74027AB30012E47AB30013740E7EE4
:1017200070011221EB74117E70481221EB740E7E51
:1017300070021221EB74117E70481221EB740E7E40
:1017400070011221EB74147E70901221EB740E6CF8
:10175000770221EBCAF86CFF80367E0F001C7A0FEF
:10176000012E740AACBF49F500F149E500EF493597
:1017700000F5492500F32F17BF0140127E1F012EEF
:10178000593500F5592500F3493500ED99340BF032
:101790007E730115BC7F38C2DAF8227CA77C7B748B
:1017A0004C900000F07445900001F07444900002E9
:1017B000F07428900003F07402900004F07CB75499
:1017C000077E44000160053E441478FB7CB990001C
:1017D00005F09000067AEBA07E3400070213727CBD
:1017E000A77C7B744C900000F07445900001F0746D
:1017F00044900002F07440900003F07402900004E2
:10180000F07CB754077E44000160053E441478FB29
:101810007CB9900005F09000067AEBA07E340007BA
:101820000213727C6B744C900000F07445900001C0
:10183000F07444900002F07428900003F074029059
:101840000004F0E4900005F07CB65407C40354F89B
:101850007C6B4E60807CB754074CB6900006F07EDF
:101860003400070213727C6B744C900000F07445D6
:10187000900001F07444900002F07440900003F076
:101880007402900004F0E4900005F07CB65407C4A4
:101890000354F87C6B4E60807CB754074CB69000C4
:1018A00006F07E340007021372CA3B7CF57CE67CAE
:1018B000D77CCB7C7EAC7F120DF712207D74059017
:1018C0000004F074C8900005F09000067AEBC09018
:1018D00000077AEBD09000087AEBE09000097AEBF1
:1018E000F07E34000A121372DA3B227C6B744C9047
:1018F0000000F07445900001F07444900002F07410
:1019000028900003F07402900004F0E4900005F0C9
:101910005E60077CB6C40354F87C6B7CB754074CFC
:10192000B6900006F07E3400070213727C6B744C94
:10193000900000F07445900001F07444900002F0B3
:101940007440900003F07402900004F0E4900005ED
:10195000F05E60077CB6C40354F87C6B7CB7540718
:101960004CB6900006F07E340007021372CAF87C71
:10197000FB7A1F014A1220AF744C900004F07401EE
:10198000900005F09000067AEBF0E4900007F07EFE
:101990000F014A7E3400087E240001791100021BE9
:1019A0001A007E34000C121372DAF822CA3B7F3020
:1019B0007A73015C7AB3015B12224A0B347F031203
:1019C0000E961220967403900004F074A790000500
:1019D000F07EB3015B900006F07EB3015C900007DF
:1019E000F07E340008121372DA3B227584017E44C3
:1019F000041FE47A49B01B4478F97EF8015C7E0448
:101A000000FF7E14228A0B0A405D44681A69200098
:101A1000020B0E0B44800A7E0BB07A29B00B240B0C
:101A20000C1B4478F280DF02226F7EB30012B404F4
:101A30001D7EB30008B481167EB3000B70107EB318
:101A4000000D700A7E37000EBE34000168030222CA
:101A50003C7E3412717E2400FF7A1F00167E340013
:101A6000017A3700140221FECA3B7D727CCB122022
:101A70007D7406900004F074C6900005F074019027
:101A80000006F09000077AEBC09000087AEB707EB9
:101A90003400097E2400011B1A707E34000B1213DF
:101AA00072DA3B22CA3B7D727CCB12207D74069099
:101AB0000004F074C6900005F07402900006F090E7
:101AC00000077AEBC09000087AEB707E3400097E44
:101AD0002400011B1A707E34000B121372DA3B22B1
:101AE000CA3B7D727CCB12207D7406900004F0749A
:101AF000C6900005F0E4900006F09000077AEBC075
:101B00009000087AEB707E3400097E2400011B1AD5
:101B1000707E34000B121372DA3B22CA3B7F30CA4C
:101B2000B80BFD74161221D67AFBB039BFFFFF80C7
:101B30000C29BFFFFE1221D67A3BB00B747EFBA0AE
:101B40007CBA147AFBB04CAA78E729BFFFFF9EF855
:101B50000003DA3B22CA3B1220AF7443900004F02A
:101B6000E4900005F0900006F0900007F07E34004D
:101B700008CA397F107E1400087E040001121D700F
:101B80001BFD7E340010121372DA3B22CA3B7F31F8
:101B90001220AF7444900004F07401900005F0E44A
:101BA000900006F0900007F07E3400087E240001CB
:101BB000797100021B1A607E34000C121372DA3B3A
:101BC000227A37012A7E34012B7E2400007E1B30CE
:101BD0007E34012C7E2400007A1B307E34012A7E64
:101BE0002400007E1B307E34012D7E2400007A1BF1
:101BF000307E37012C22D2B3D2B2A2B2E4330A3BF8
:101C00006D227A1F007D74017AB3005F7AB30060A1
:101C1000A2B3E4330A3B7A1F007D74017AB3007BE0
:101C20007AB3007C22CAF8740E7E70011221EB7424
:101C3000111221D67CFB30E50874117E7040122110
:101C4000EB7CBF30E20774116C771221EBC202DA31
:101C5000F822CA797A0F00E97E3400E97E24000078
:101C60007A1F014E7E1400007E0400017E1F00E9F1
:101C70001201F17D730A371213727D37DA7922CAA5
:101C8000F8740E7E70021221EB74111221D67CFBC7
:101C900030E50874117E70401221EB7CBF30E20702
:101CA00074116C771221EBDAF822CA3BCA787F30C4
:101CB000CAB8800B7EFBB07E3B700B741221EB29FF
:101CC000AFFFFF7CBA1439BFFFFF4CAA78E61BFDBB
:101CD000DA3B22CAF87CFB1220967403900004F0D1
:101CE00074A3900005F07402900006F09000077A4B
:101CF000EBF07E340008121372DAF8227EB3001281
:101D0000B4041B7EB30008B401147EB3000B700E44
:101D10007EB3000D70087E37000E4D33680302223B
:101D20003C0222587EB30012B404097EB30008BE00
:101D3000B0A1680302223C7E1801397A1F00167E8A
:101D400037000E7A3700140221FE7EB30012B4046D
:101D5000097EB30008BEB021680302223C7E180150
:101D6000397A1F00167E37000E7A37001402222EB1
:101D70007F217F707F10800A7E2B307A1B300B54BE
:101D80000B34691FFFFD7D011B04790FFFFD4D1111
:101D900078E67F1722CA796D777E14001CAD172E66
:101DA00014005D6D007D371208EF0B74BE740002E5
:101DB00040E7121545DA7922CAF87CFB12207D74BF
:101DC00002900004F074C5900005F09000067AEBD4
:101DD000F07E340007121372DAF822CAF87CFB1284
:101DE000207D7402900004F074C4900005F090000F
:101DF000067AEBF07E340007121372DAF822CAF882
:101E00007CFB1220967402900004F074A5900005EB
:101E1000F09000067AEBF07E340007121372DAF8C5
:101E200022801200000000000000000000000000FE
:101E300000000000007D231B344D2278E622122092
:101E40007D7402900004F074C7900005F074019056
:101E50000006F07E34000702137212207D74029097
:101E60000004F074C0900005F07401900006F07E4C
:101E70003400070213721220967402900004F0746A
:101E8000A3900005F07401900006F07E3400070274
:101E900013721220967402900004F074A49000054E
:101EA000F07401900006F07E3400070213721220D5
:101EB0007D7402900004F074C2900005F0740190EB
:101EC0000006F07E3400070213721220967402900E
:101ED0000004F074A2900005F07402900006F07EF9
:101EE00034000702137212207D7402900004F07413
:101EF000C1900005F07401900006F07E34000702E6
:101F000013721220967402900004F074A0900005E1
:101F1000F07401900006F07E340007021372122064
:101F2000967402900004F074A2900005F074019081
:101F30000006F07E3400070213721220967402909D
:101F40000004F074A1900005F07401900006F07E8A
:101F50003400070213727EB3000924DF680A146894
:101F60000A0BB17809021D4A021D2402217F0222B8
:101F70003C12207D7402900004F074C0900005F0C3
:101F8000E4900006F07E340007021372122096746B
:101F900002900004F074A4900005F0E4900006F0B4
:101FA0007E34000702137212207D7402900004F048
:101FB00074C7900005F0E4900006F07E340007023C
:101FC00013721220967402900004F074A090000521
:101FD000F0E4900006F07E3400070213721220969F
:101FE0007402900004F074A3900005F0E4900006E1
:101FF000F07E34000702137212207D7402900004F8
:10200000F074C2900005F0E4900006F07E34000702
:1020100002137212207D7402900004F074C19000CB
:1020200005F0E4900006F07E3400070213721220DF
:10203000967402900004F074A1900005F0E4900002
:1020400006F07E340007021372122096740290008C
:1020500004F074A2900005F0E4900006F07E3400D5
:1020600007021372CAF80A5B2E540020121B1B7C55
:10207000FB74146C771221EB7CBFDAF822744F905A
:102080000000F0744C900001F07445900002F07470
:1020900080900003F022744C900000F07443900094
:1020A00001F07444900002F07480900003F02274F8
:1020B00037900000F07453900001F07445900002D6
:1020C000F07447900003F022A9C7AF740E7E700130
:1020D0001221EB74146C771221EBC200A9D7AF2246
:1020E000CA797D7380077E3403E8121E217D371B79
:1020F000744D3378F1DA79227A1F00257A0F003196
:1021000074017AB3002F7E3701597A370029227A79
:102110001F00397A0F004574017AB300437E3701FE
:10212000557A37003D227A1F004D7A0F005974010D
:102130007AB300577E3701577A370051227E080064
:1021400035120FCE7E1F00354D237803D38001C397
:102150009280227E080049120FCE7E1F00494D2337
:102160007803D38001C39281227E080021120FCE12
:102170007E1F00214D237803D38001C392C8227EA5
:10218000B30012B404097EB30008BEB02168030294
:10219000223C0222581220967401900004F074A68A
:1021A000900005F07E34000602137212207D740147
:1021B000900004F074C3900005F07E340006021312
:1021C000727CA77C7B0A5A2E540020121CAA741120
:1021D0007E70010221EB7CABE5FC20E7FB7CBA447E
:1021E00080F5FCE5FC20E7FBE5EC227CA77C7BE5A9
:1021F000FC20E7FB7CB7547FF5FC7AA1EC2274034A
:102200007AB3001374117E70401221EB0213DF4386
:102210008E0475D7D075D68A438E1043AF0422CA78
:102220001B7E1F001C0B1C7A1F001CDA1B3274045F
:102230007AB3001374117E70400221EB74057AB3F7
:10224000001374117E70600221EB6D3380020B3439
:102250007E0BB00B1470F722E47AB3001374117E76
:1022600070480221EB12227E7E1403E802089C12C1
:10227000144612175480FB74047AB30115227E1F92
:10228000001C2202223C283029000004011600FF15
:1022900022DD0004011A000000000004011E0000FD
:1022A00000000004001C00000000002800ED213D9B
:1022B00000000005000000002153000000050000A0
:1022C0000000216900000005000000001D950000CD
:1022D0000005000000000001001100000040535400
:0622E000434953502300A6
:00000001FF
