:10000000021721CA79740E7E7001121E5F741412D9
:100010001E4A7CFB30E60874147E7080121E5F7CE2
:10002000BF20E0030200C47E1400407E040001747F
:10003000211218517AB300107E1F00814D237803DE
:100040000200C26CFF80737EB300111A3B7E0F006A
:10005000812D317D207E1BA00A4F2E4400407A91D5
:10006000827A81837EEBE0BCEA7839047AB30011AE
:100070007E7300111A372D317D207E1BB0703974CC
:10008000146C77121E5F75F40075DC00E47E34FE9C
:10009000077E24007E7A1BB07E34000A121DC475D0
:1000A000C76080FE7E1F00817E1B70BCE7780474F1
:1000B000018001E47AB300110BF07E730010BC7F65
:1000C0003885D200DA79229D322222020F9A7F707F
:1000D0007F517E6F00517E9400DD0201174005E4E0
:1000E0007A7BB0227A7BB00B7C22540F2490D434DC
:1000F00040D430F30CBEB0414007BEB05B50022488
:10010000204CCC68021BC00B84D389944CCC680B68
:10011000742012010180F5CA3B6D889F337CAE7E4E
:100120005BB00B5C7007C37D38DA3B8994B42569FA
:10013000C2F37E5BB00B5CA5F824D0BEB00A501BA6
:100140007E500A20F60DAC5CA52D7CCB70034EF0E2
:100150000180DDAC5DA52D7CDB80D524CFBEB01A3F
:10016000A5E850055E00DFD2F39004ECA3E49360B1
:1001700011BCB078F77417934CAB30F6B34EF080E7
:1001800080AEA3E4936010BCB078F77416937C3B08
:100190007423937C2B89147CB0801374201201018A
:1001A00020F205BEC00250F31B6D29B600011201FA
:1001B0000102010C1B6E691600020B6A00BE0800EA
:1001C0000078087E0400FF7E141ED620F21E4CCC60
:1001D000681A7F10E47E1B804C8868070B1C04BCE7
:1001E000BD78F2C2F6CA0B1202EBDA0B7E0BB060DE
:1001F000C0CA0B120101DA0B0B0C4CDD68EE1BD0F0
:1002000078EA80ADD2F07E101080037E10085EB0D8
:100210005F800AD2F67E100A80057E100AC2F66D53
:10022000119F117E00201B6C7E6B7030F6021A3716
:1002300020F1051B6C7E6B6030F6041A261A243000
:10024000F0051B6D0B6A20A5EC3382F692F6500A7E
:100250007CEA9F229F217F127CAE4C44780F7C4524
:100260007C567C676C772E00F878EF80122F117C1B
:10027000B3337C3B9CB140047C3B0B70A5D8EE7C37
:10028000B230E005DAB8C44C3BCA380B207E0020FF
:100290007E3000BE18000078C1BE1008780730F428
:1002A00004C2F480B5CA287CB2BCBD38027CBD1241
:1002B00002EBDA28BC2D500A1BD0E4CA281200EA4F
:1002C00080F07CB213DAB84004C4CAB8C4CA28BEED
:1002D000F08040095CDD7805A5DA0260065EF07FFB
:1002E0001200EADA28A5DADA02010CBEF001680F82
:1002F00030F402240220F50620F70330F601042032
:10030000F229BCBC5025CAB87CBF13B0E67420509B
:100310001174307C8A5E80F0680812032B5EA00F97
:100320008003120101DAB8BCBC78DB30F40F743002
:10033000120101745830F302747812010130F6058D
:10034000742D020101742B20F5F8742020F7F3229C
:100350001B6C7E6BB010F1021B6C20F60B30E704B7
:10036000F404D2F27CCB800520E7057CDB0201306F
:100370005EF07F80F81B6E691600020B6A0030F099
:10038000076D221B0A200B0D1B0A8002011BE46C67
:1003900022BE3007500B7F1F2D312E34FFF77E39E0
:1003A000B0227CBF20E7A8742E4EF080020101121B
:1003B00004D5403D7CBD7003047CDB1205EC7C3D24
:1003C0004C3368101B307CBE20E40912038E70048D
:1003D0004C3378F07CBD7CD3BEA0FD481CBCAB5830
:1003E00018E49CBA2CB31801E47CDB0204761204F6
:1003F000D5406E7CBD041205EC7AFBA07CAE7CBDC2
:10040000A2F492F0C2F4400260010424051202EB4F
:100410007E30FF0B3012038ECA381200EA20F0043F
:100420004CDD68031203A2DA38BC3D78E6740E1284
:1004300000EA742B7EFBA030F707742D6EA0FF0B33
:10044000A07AFBA01201017EA00A7EFBB0847AFB99
:10045000A01200EA7EFBB01200EA9EF8000802013A
:100460000CD2F27ED0000201CB1204D540F37CBA4C
:100470002CBD041205EC7AFBA07CBA7CAE30E701FF
:10048000E40420F4044CDD6805D2F0C2F4042CBD71
:100490001202EB6C337EFBB0601B20E712147AFB78
:1004A000B012038ECA381200EADA380B3080E60444
:1004B0007AFBB01B3012038ECA381200EA4CDD689A
:1004C000071203A21BD080E19EF8000930F003124E
:1004D00003A202010C7CEA7CAF10F7037ED0067CFD
:1004E000FA1B6E693600020B6A200205342D2B20A0
:1004F0004C4248232E0053584F44494355502A4EEE
:10050000464547000420800102001040B4060B134A
:1005100013A01A04507569EEAF0102020202010233
:100520000203030403034E614E002B494E46002D87
:10053000494E46007D522D557CBE92E67CEB7CBA3E
:10054000601F0470287CB5C2E77E0400FF60067E51
:10055000140526D3227E14052F40047E14052AD3C9
:1005600022DA099F22CA2BCA2BC3CA09220A0A7E91
:10057000144D10AD109E083AF09E10267CB5C2E7CF
:100580007EA0567C9BA46E54FFFF2E54C511ACA9CF
:100590002D15E4A539CAB8CA1B20E70A120780DA6C
:1005A0001B1206CF800AF404120780DA1B12062FF2
:1005B000DAA87CB5337CB4334E50806C4424822F4F
:1005C000111478FBDA497407BE400A40099E400ABC
:1005D000CA0201140BA0CA486C442F117F012F11CD
:1005E0002F112F101478EFCA48CA49227F0F20E735
:1005F0003ABEB007400274070A0B2D109E14000982
:100600007E19B02EB0FB501F4C116817E47A19B058
:100610001B147E19B0047A19B0B40A0BE47A19B02D
:10062000A5D9ED0BA074017A19B0225EE0BF225D5E
:1006300022680D5D0078122D220B4068099F11225F
:100640002D000B0078F90207F41207B75C800B80CD
:100650006808248150072CB0500A0207FC2CB040D7
:10066000030207F97C8B5D1178267CB17CA5BE1056
:1006700080680A5D33780DA5BD80057F100207E60E
:100680006D0080307F017C5B7CB17CA5AD12802445
:100690005D337806A5BD80F080E1CA887D41AD4319
:1006A0007CB17CA5AD122D1450020B047C5BAD23F4
:1006B0002F01DA88A42D05BE008040060B80780447
:1006C00080982F007C437C507C617C720207D0BEF6
:1006D00024FFFF6806BE04FFFF78030207F4120739
:1006E000B75CB00468F57CB8A54868EF7CB87003C7
:1006F0009F1122A5B800030207FC2E008150079C21
:100700008038070207F99C8050ED0A51C2E74D512D
:1007100078030207E67E5400807E901A6C00800603
:100720001B9068142F11BF1040049F104CAB033076
:10073000E7EECAA86CAA80E8DA39DA587C4ABE50DB
:1007400080500A1B8068BC2F1150020B700207D02A
:100750003F8000004120000042C80000447A0000B1
:10076000461C400047C35000497424004B18968033
:100770004CBEBC205A0E1BCA6753C21C749DC5AE2A
:100780007C7B60065407681623231207A57CB754A8
:1007900038680A7F101207A212062F7F01227CB749
:1007A000543803241C6CAA2E5407507E4400FF0BBF
:1007B0002A0069120002222D0092D50E104E1080E0
:1007C0007D422D445002B2D54E50806C447CB822FC
:1007D0002C4450120B1C7E40005E507FBE1800005F
:1007E00078040B806816A2D57CB8137C4B7CB5923C
:1007F000E77C5B227E1CFFFF229F11227E24FF806C
:1008000020D5026C456D33227D51AD037D027D21E3
:10081000AD052D12AD352D2122CAF87EF300087CDE
:10082000BF5480B480167EB3000B70307EB3000AD4
:10083000702A7E37000EBE34000268030209117C64
:10084000BF540F14681B14683B0BB16803020911F5
:100850007EB3000D70067EB3000C601E020911808D
:10086000197EB30012B4040F7EB3000D60030209B9
:10087000117EB3000C60030209117E340F8E7E24BA
:1008800000FF807D7EB30012B404067EB3000D60CD
:1008900002807E7E73000C7CA75EA00F1B70683602
:1008A0002E707F68040B7078687E2400017CBA602B
:1008B000053E241478FB7E73001A6C665C754D331C
:1008C000680A7E340F907E2400FF80357E340F8EC0
:1008D0007E2400FF802B7E2400017CBA60053E242C
:1008E0001478FB7E73001B6C665C754D33680A7E62
:1008F000340F907E2400FF80087E340F8E7E24000B
:10090000FF7A1F00167E3400027A370014800780B9
:1009100000121E918003121E72DAF822C2907E34F9
:1009200000C8121DDCD2907E3400C8121DDCC290BB
:100930007E3400C8121DDCD2907E3400C8121DDC4B
:10094000C2907E3400C8121DDCD2907E3400C812E2
:100950001DDCC2907E3401F4121DDCD2907E340185
:10096000F4121DDCC2907E3401F4121DDCD2907EA4
:100970003401F4121DDCC2907E3401F4121DDCD26D
:10098000907E3401F4121DDCC2907E3400C8121D2A
:10099000DCD2907E3400C8121DDCC2907E3400C8C8
:1009A000121DDCD2907E3400C8121DDCC2907E3451
:1009B00000C8121DDCD2907E3400C8121DDC7E34CB
:1009C0000BB8021DDC7EB30012BEB00268207EB3FD
:1009D0000008701A7EB3000B70147EB3000D700E09
:1009E0007EB3000C70087E37000E4D336803021E84
:1009F000917EB3000AB4015F74047AB30012E47A02
:100A0000B3001A7AB3001B740E7E7001121E5F745D
:100A1000127E7020121E5F74107E7008121E5F74AA
:100A20000E7E7002121E5F74127E7020121E5F74A2
:100A3000107E7008121E5F740E7E7001121E5F74AD
:100A4000126C77121E5F74137E7008121E5F740E94
:100A50006C77121E5F801074037AB3001274FF7AF1
:100A6000B3001A7AB3001B021EADCA3B7A3700A846
:100A70007F306D337A3700AB020AFB74387AB300EB
:100A8000AA7E3700A8BE34003850047A7300AA1238
:100A90001D617E7300AA0A572E540003900004F0D3
:100AA00074CF900005F07E1700AB7E3400067E24E4
:100AB00000011B1A107E7300AA0A37CA397F137E01
:100AC0001400087E040001121A771BFD7E7300AA31
:100AD0000A372E3400080A3712108D7E7300AA0AD6
:100AE000372D737E7300AA0A272E3700AB7A3700A2
:100AF000AB7E3700A89D327A3700A87E3700A84D1C
:100B0000336803020A7BDA3B22CA3B7A3700A37FB1
:100B1000306D337A3700A6020B9A74387AB300A589
:100B20007E3700A3BE34003850047A7300A5121D2E
:100B30007A7E7300A50A572E540003900004F074C7
:100B4000AF900005F07E1700A67E3400067E2400DC
:100B5000011B1A107E7300A50A37CA397F137E1451
:100B600000087E040001121A771BFD7E7300A50A9F
:100B7000372E3400080A3712108D7E7300A50A370D
:100B80002D737E7300A50A272E3700A67A3700A69C
:100B90007E3700A39D327A3700A37E3700A34D3302
:100BA0006803020B1ADA3B227EB30012B404247EDF
:100BB000B30008B4021D7EB3000D6003020C417E39
:100BC000B3000B707C7EB3000A70767E37000E4D4A
:100BD000336802806C7E63000C7C765E700F1B6055
:100BE000682F2E607F68040B6078567E2400017C9D
:100BF000B760053E241478FB7C656E60FF5E630081
:100C00001A7A63001A740E121E5F74117E7040808F
:100C1000247E2400017CB760053E241478FB7C65AB
:100C20006E60FF5E63001B7A63001B740E121E5F12
:100C300074147E7080121E5F740E6C77121E5F80BB
:100C400003021E91021EAD7EB300085480BEB08028
:100C50006803020CD27EB3000B1BB168191468281C
:100C60000BB1786E7E340F397E2400FF7A1F001698
:100C70007E34001280547E340F4B7E2400FF7A1F96
:100C800000167E34004380427EB3000A14681914B3
:100C900068280BB1783C7E340F357E2400FF7A1F24
:100CA00000167E34000480227E340F927E2400FFE2
:100CB0007A1F00167E34000880107E340F177E24C1
:100CC00000FF7A1F00167E34001E7A37001480055C
:100CD0008000021E917E37000EBE37001450047A49
:100CE000370014021E727EB30012B404247EB300D7
:100CF00008B4021D7EB3000D6003020D797EB300BF
:100D00000B70767EB3000A70707E37000E4D33682C
:100D10000280667E63000C7C765E700F1B60682C20
:100D20002E607F68040B6078507E2400017CB760E1
:100D3000053E241478FB7C654E63001A7A63001A22
:100D4000740E121E5F74117E701080217E240001CB
:100D50007CB760053E241478FB7C654E63001B7AEB
:100D600063001B740E121E5F74147E7020121E5FCF
:100D7000740E6C77121E5F8003021E91021EADCAB4
:100D8000F8740E6C77121E5F7411121E4A7CFB30D1
:100D9000E20F74117C7F5E70FB121E5FE47AB30079
:100DA000137CBF30E40A74117C7F4E7080121E5F8A
:100DB0007EB3001324FD68461468480BB278477C64
:100DC000BF30E0427E08000874201218517E3700C0
:100DD0000E1218F77A37000E7EB30008546024E034
:100DE000680D24E0680E2440780F1211C28017129B
:100DF0001D2D8012121ED2800D121E91800812101D
:100E0000FA8003121311DAF822CA3B7A3700957F71
:100E1000307E3400C87A37009AA9C7AF740E7E704E
:100E200001121E5F6D337A3700987E270095BE242D
:100E3000004008057E704080027C757A73009774CC
:100E400011121E4A30E0107E37009A7D231B247A4F
:100E500027009A4D3378E87F032E1700987EB30061
:100E6000977E7001121E357E7300970A277D322E01
:100E70003700987A3700987E3700959D327A370090
:100E8000957E730097BE704050A0D202A9D7AFDA0A
:100E90003B2253B2FC43B10374807E34FE077E24B0
:100EA000007E7A1BB07E34FE077E24007E7E1BB05F
:100EB00030E0F275DC0075F490E46C77121E5F741C
:100EC000017E7008121E5F74077E703F121E5F74F1
:100ED000097E703F121E5F740B7E7007121E5F74D6
:100EE000016C77121E5F74027AB30012E47AB300C9
:100EF000137AB3001A7AB3001B7E3401007E2400FB
:100F0000C27A1F009C7AB300A07AB300A174087A59
:100F1000B300A2A9D7AF221E035300540043002000
:100F20000055005300420020005300650072006924
:100F30000061006C000403090412010002020000B9
:100F400040BF3402FF000101020001090243000218
:100F500001008032090400000102020100052400A2
:100F600010010524010001042402020524060001E9
:100F7000070582034000FF09040100020A00000087
:100F80000705810240000007050102400000000043
:100F900001000803530054004300CA7BCA6BCA5BBC
:100FA000CA4BCA3BCA2BCA1BCA0BC0D0C083C08263
:100FB0007EF1FC7406121E4A7CEB7402121E4A7CFF
:100FC000CB7404121E4A7CDB7CBE30E103121ED5BA
:100FD0007CBE30E2031214897CBC30E003120D7F2A
:100FE0007CBC30E10312192C7CBC30E20312198660
:100FF0007CBD30E1031200037CBE30E0031200CA66
:101000007AF1FCD082D083D0D0DA0BDA1BDA2BDA7B
:101010003BDA4BDA5BDA6BDA7B32A2B6E433782761
:101020007E34000A121DDCA2B6E433781AA2B6E4BC
:101030003368FA7E141EF87E0400FF1219592097B7
:1010400003D38001C39297A2B7E433783F7E340084
:101050000A121DDCA2B7E43378327E141EDA7E0455
:1010600000FF1219597E7300AF0A373E340B347AF1
:101070007300AF7EB300AFB4FF0674FE7AB300AF67
:101080007EB300AFF590A2B7E43368FA22CA3B7D85
:10109000737E3400C87A370052A9C7AF740E7E70D1
:1010A00001121E5F6D66BE74004028057E70408090
:1010B000027C7F7A7300517411121E4A30E0107E58
:1010C0003700527D231B247A2700524D3378E87D68
:1010D000162E1400007E0400017EB300517E7001C4
:1010E000121E357E7300510A272D629D72BE70401C
:1010F00050B4D202A9D7AFDA3B22CAF8740E6C778B
:10110000121E5F7411121E4A20E1537E370014BE76
:1011100034004028057EF04080027CF77E0F0016E8
:101120007C7F74201219B10A2F7E3700149D327A09
:101130003700140A157E1F00162D317A1F00167E07
:101140003700144D33780F74117E700A121E5FE45D
:101150007AB30013800874117E7002121E5FDAF8F1
:10116000227A1F008D7E3400907E2400007E1B308A
:101170007E3400917E2400007A1B307E34008F7E06
:101180002400007E1B307E3400927E2400007A1BF7
:10119000307E34008E7E2400007E1B307E3400932F
:1011A0007E2400007A1B307E34008D7E2400007E79
:1011B0001B307E3400947E2400007A1B307E1F009A
:1011C00091227EB30009BEB00D50507EA003A490C2
:1011D00011D3730211FA0211FD02121B0212000256
:1011E000121B02120302120602120902120C021250
:1011F0000F021212021215021218020819020BA88D
:10120000020CE602143F020C47021ECC02121E0220
:1012100009C5021760021A03021ECF021E917EB397
:101220000008B480227EB3000B701C7EB3000A70ED
:10123000167EB3000D70107EB3000C700A7E37006E
:101240000EBE3400016803021E917EB30012B40486
:101250000A7E340F907E2400FF80087E340F8E7E3D
:101260002400FF7A1F00167E3400017A3700140232
:101270001E72CA3B7F707CF57CE67CD77CCBCA7B38
:101280000A366D222F110A1F6D00120808DA0B12A0
:101290000B09121D7A7405900004F074A8900005E3
:1012A000F09000067AEBC09000077AEBD09000082F
:1012B0007AEBE09000097AEBF07E34000A12108D90
:1012C000DA3B2275E900A9D7BA75EA0043BA8075FE
:1012D0009300759400759100759200759500759650
:1012E0000075B10075B20075B30075B40075C90022
:1012F00075CA0075CB0075CC0075E10075E200126F
:101300000E9243AF80D2AF7EB30012B404F9C2C0D4
:1013100022740E6C77121E5F7411121E4A30E03D6B
:101320007E0F001674201218510A1B7E2700149D90
:10133000217A2700147E1F00162D317A1F00167E99
:101340003700144D33780E74117E7048121E5FE41E
:101350007AB300132274117E7040021E5F22CA7994
:101360007A0F007D121D937453900004F0E49000F6
:1013700005F0900006F0900007F07E34007D7E249A
:1013800000007A1F00517E1400087E0400017E1FB9
:10139000007D1200CE7D732E7400087D370B340A59
:1013A0003712108D7D37DA7922CAF87CFBBEF03B0C
:1013B00028037EF03B744C900000F07445900001CF
:1013C000F07444900002F07428900003F090000440
:1013D0007AEBF00A3FCA397F107E1400057E0400C4
:1013E00001121A771BFD0A3F2E3400050A3712102E
:1013F0008DDAF822CAF87CFBBEF03B28037EF03B76
:10140000744C900000F07445900001F0744490001A
:1014100002F07440900003F09000047AEBF00A3F71
:10142000CA397F107E1400057E040001121A771B52
:10143000FD0A3F2E3400050A3712108DDAF822CA51
:10144000F87EB3000870237EB3000D701D7EB300DC
:101450000C70177EB3000B70117EF3000ABEF08093
:1014600050087E37000E4D336805121E918017E438
:101470007C7F121E5F4CFF68047403800274027A42
:10148000B30012121EADDAF822E46C77121E5F74FC
:10149000027AB30012E47AB30013740E7E70011264
:1014A0001E5F74117E7048121E5F740E7E700212F1
:1014B0001E5F74117E7048121E5F740E7E700112E2
:1014C0001E5F74147E7090121E5F740E6C77021E85
:1014D0005F7CA77C7B744C900000F0744590000109
:1014E000F07444900002F07428900003F0740290AD
:1014F0000004F07CB754077E44000160053E4414AC
:1015000078FB7CB9900005F09000067AEBA07E3461
:10151000000702108D7CA77C7B744C900000F07457
:1015200045900001F07444900002F0744090000374
:10153000F07402900004F07CB754077E4400016010
:10154000053E441478FB7CB9900005F09000067AC3
:10155000EBA07E34000702108D7C6B744C90000071
:10156000F07445900001F07444900002F0742890EB
:101570000003F07402900004F0E4900005F07CB6E3
:101580005407C40354F87C6B4E60807CB754074CFE
:10159000B6900006F07E34000702108D7C6B744C10
:1015A000900000F07445900001F07444900002F047
:1015B0007440900003F07402900004F0E490000581
:1015C000F07CB65407C40354F87C6B4E60807CB743
:1015D00054074CB6900006F07E34000702108DCA06
:1015E0003B7CF57CE67CD77CCB7C7EAC7F120A6AA8
:1015F000121D617405900004F074C8900005F0900D
:1016000000067AEBC09000077AEBD09000087AEBE6
:10161000E09000097AEBF07E34000A12108DDA3B7C
:10162000227C6B744C900000F07445900001F074C3
:1016300044900002F07428900003F07402900004BB
:10164000F0E4900005F05E60077CB6C40354F87CBB
:101650006B7CB754074CB6900006F07E340007024E
:10166000108D7C6B744C900000F07445900001F07C
:101670007444900002F07440900003F074029000F3
:1016800004F0E4900005F05E60077CB6C40354F8F3
:101690007C6B7CB754074CB6900006F07E34000794
:1016A00002108DCAF87CFB7A1F001C121D93744C2B
:1016B000900004F07401900005F09000067AEBF0C1
:1016C000E4900007F07E0F001C7E3400087E2400AA
:1016D00001791100021B1A007E34000C12108DDA01
:1016E000F822CA3B7F307A7300AE7AB300AD121E87
:1016F0009F0B347F03120B09121D7A7403900004B0
:10170000F074A7900005F07EB300AD900006F07E67
:10171000B300AE900007F07E34000812108DDA3B63
:10172000227584017E44041FE47A49B01B4478F991
:101730007EF800AF7E0400FF7E141F160B0A405D8A
:1017400044681A692000020B0E0B44800A7E0BB01D
:101750007A29B00B240B0C1B4478F280DF021EBAEE
:101760007EB30012B4041D7EB30008B481167EB3AC
:10177000000B70107EB3000D700A7E37000EBE3471
:1017800000016803021E917E340F8E7E2400FF7AD2
:101790001F00167E3400017A370014021E72CA3B05
:1017A0007D727CCB121D617406900004F074C690AB
:1017B0000005F07401900006F09000077AEBC090ED
:1017C00000087AEB707E3400097E2400011B1A7039
:1017D0007E34000B12108DDA3B22CA3B7D727CCB2B
:1017E000121D617406900004F074C6900005F07438
:1017F00002900006F09000077AEBC09000087AEBA8
:10180000707E3400097E2400011B1A707E34000BA8
:1018100012108DDA3B22CA3B7D727CCB121D6174A3
:1018200006900004F074C6900005F0E4900006F005
:101830009000077AEBC09000087AEB707E340009C4
:101840007E2400011B1A707E34000B12108DDA3BCF
:1018500022CA3B7F30CAB80BFD7416121E4A7AFBAF
:10186000B039BFFFFF800C29BFFFFE121E4A7A3B32
:10187000B00B747EFBA07CBA147AFBB04CAA78E75C
:1018800029BFFFFF9EF80003DA3B22CA3B121D93DB
:101890007443900004F0E4900005F0900006F0908E
:1018A0000007F07E340008CA397F107E1400087EDD
:1018B000040001121A771BFD7E34001012108DDA1D
:1018C0003B22CA3B7F31121D937444900004F07494
:1018D00001900005F0E4900006F0900007F07E34DF
:1018E00000087E240001797100021B1A607E34001A
:1018F0000C12108DDA3B227A3700217E3400227ED2
:101900002400007E1B307E3400237E2400007A1BDE
:10191000307E3400217E2400007E1B307E34002483
:101920007E2400007A1B307E37002322CAF8740E12
:101930007E7001121E5F7411121E4A7CFB30E50896
:1019400074117E7040121E5F7CBF30E20774116C10
:1019500077121E5FC202DAF822CA797A0F004D7E32
:1019600034004D7E2400007A1F00517E1400007E5A
:101970000400017E1F004D1200CE7D730A37121045
:101980008D7D37DA7922CAF8740E7E7002121E5FDE
:101990007411121E4A7CFB30E50874117E704012EF
:1019A0001E5F7CBF30E20774116C77121E5FDAF89D
:1019B00022CA3BCA787F30CAB8800B7EFBB07E3B20
:1019C000700B74121E5F29AFFFFF7CBA1439BFFF82
:1019D000FF4CAA78E61BFDDA3B22CAF87CFB121DFD
:1019E0007A7403900004F074A3900005F0740290E0
:1019F0000006F09000077AEBF07E34000812108D9C
:101A0000DAF8227EB30012B4041B7EB30008B401DE
:101A1000147EB3000B700E7EB3000D70087E37008D
:101A20000E4D336803021E91021EAD7EB30012B448
:101A300004097EB30008BEB0A16803021E917E189F
:101A4000009C7A1F00167E37000E7A370014021EA3
:101A5000727EB30012B404097EB30008BEB02168E0
:101A600003021E917E18009C7A1F00167E37000E1E
:101A70007A370014021E837F217F707F10800A7ED8
:101A80002B307A1B300B540B34691FFFFD7D011B7B
:101A900004790FFFFD4D1178E67F1722CAF87CFB11
:101AA000121D617402900004F074C5900005F0905E
:101AB00000067AEBF07E34000712108DDAF822CAA5
:101AC000F87CFB121D617402900004F074C4900055
:101AD00005F09000067AEBF07E34000712108DDAE4
:101AE000F822CAF87CFB121D7A7402900004F0748C
:101AF000A5900005F09000067AEBF07E3400071206
:101B0000108DDAF8228012000000000000000000B2
:101B10000000000000000000007D231B344D2278EF
:101B2000E622121D617402900004F074C790000553
:101B3000F07401900006F07E34000702108D121D33
:101B4000617402900004F074C0900005F07401907C
:101B50000006F07E34000702108D121D7A74029088
:101B60000004F074A3900005F07401900006F07E6C
:101B700034000702108D121D7A7402900004F07474
:101B8000A4900005F07401900006F07E3400070276
:101B9000108D121D617402900004F074C290000553
:101BA000F07401900006F07E34000702108D121DC3
:101BB0007A7402900004F074A2900005F074029010
:101BC0000006F07E34000702108D121D6174029031
:101BD0000004F074C1900005F07401900006F07EDE
:101BE00034000702108D121D7A7402900004F07404
:101BF000A0900005F07401900006F07E340007020A
:101C0000108D121D7A7402900004F074A2900005E9
:101C1000F07401900006F07E34000702108D121D52
:101C20007A7402900004F074A1900005F0740190A1
:101C30000006F07E34000702108D121D61740290C0
:101C40000004F074C0900005F0E4900006F07E34CB
:101C5000000702108D121D7A7402900004F074A423
:101C6000900005F0E4900006F07E34000702108D2D
:101C7000121D617402900004F074C7900005F0E436
:101C8000900006F07E34000702108D121D7A740257
:101C9000900004F074A0900005F0E4900006F07E3F
:101CA00034000702108D121D7A7402900004F07443
:101CB000A3900005F0E4900006F07E3400070210C7
:101CC0008D121D617402900004F074C2900005F042
:101CD000E4900006F07E34000702108D121D61743E
:101CE00002900004F074C1900005F0E4900006F04A
:101CF0007E34000702108D121D7A7402900004F0E9
:101D000074A1900005F0E4900006F07E3400070214
:101D1000108D121D7A7402900004F074A2900005D8
:101D2000F0E4900006F07E34000702108D7EB300D0
:101D30000924DF680A14680A0BB17809021A5102F3
:101D40001A2B021E1F021E91CAF80A5B2E54002095
:101D50001218517CFB74146C77121E5F7CBFDAF88A
:101D600022744F900000F0744C900001F074459084
:101D70000002F07480900003F022744C900000F098
:101D80007443900001F07444900002F0748090005D
:101D900003F0227437900000F07453900001F07447
:101DA00045900002F07447900003F022A9C7AF7479
:101DB0000E7E7001121E5F74146C77121E5FC200DB
:101DC000A9D7AF22CA797D7380077E3403E8121B3E
:101DD000057D371B744D3378F1DA79227D237E340B
:101DE0001A0A7D131B147D3178F87D121B147D2196
:101DF00078EC22121D7A7401900004F074A6900011
:101E000005F07E34000602108D121D6174019000F1
:101E100004F074C3900005F07E34000602108D7E3D
:101E2000B30012B404097EB30008BEB021680302F7
:101E30001E91021EAD7CA77C7B0A5A2E54002012F4
:101E400019B174117E7001021E5F7CABE5FC20E7C6
:101E5000FB7CBA4480F5FCE5FC20E7FBE5EC227C4A
:101E6000A77C7BE5FC20E7FB7CB7547FF5FC7AA1DF
:101E7000EC2274037AB3001374117E7040121E5F5B
:101E80000210FA74047AB3001374117E7040021EBB
:101E90005F74057AB3001374117E7060021E5F6D6B
:101EA0003380020B347E0BB00B1470F722E47AB34C
:101EB000001374117E7048021E5F1212C312101AB2
:101EC00080FB7D137D322D3122AD3222021E910224
:101ED0001E91021E912228302900B0B4BCFC503360
:101EE00037D2D1BEADB0B4CFC22C6C6564D7F3D2BB
:101EF000C6D2BBB8F60D0A00B0B4BCFC503336D223
:101F0000D1BEADB0B4CFC22C6C6564C8A1B7B4D299
:101F1000BBB4CE0D0A000004008100FF1F3A00048C
:101F2000008500000000000400890000000000019E
:101F300000AFFE000100110000004053544349531C
:031F40005023002B
:00000001FF
