:1000000002125CC2907E3400C81219AAD2907E34CB
:1000100000C81219AAC2907E3400C81219AAD29040
:100020007E3400C81219AAC2907E3400C81219AAE0
:10003000D2907E3400C81219AAC2907E3401F41204
:1000400019AAD2907E3401F41219AAC2907E34010A
:10005000F41219AAD2907E3401F41219AAC2907E29
:100060003401F41219AAD2907E3401F41219AAC2F2
:10007000907E3400C81219AAD2907E3400C812199A
:10008000AAC2907E3400C81219AAD2907E3400C849
:100090001219AAC2907E3400C81219AAD2907E34D6
:1000A00000C81219AA7E340BB80219AACAF87CFB40
:1000B00012183F7402900004F074C5900005F0908F
:1000C00000067AEBF0121443DAF822020EDD7F709C
:1000D0007F517E6F00957E9400DD0201174005E49C
:1000E0007A7BB0227A7BB00B7C22540F2490D434DC
:1000F00040D430F30CBEB0414007BEB05B50022488
:10010000204CCC68021BC00B84D389944CCC680B68
:10011000742012010180F5CA3B6D889F337CAE7E4E
:100120005BB00B5C7007C37D38DA3B8994B42569FA
:10013000C2F37E5BB00B5CA5F824D0BEB00A501BA6
:100140007E500A20F60DAC5CA52D7CCB70034EF0E2
:100150000180DDAC5DA52D7CDB80D524CFBEB01A3F
:10016000A5E850055E00DFD2F39004ECA3E49360B1
:1001700011BCB078F77417934CAB30F6B34EF080E7
:1001800080AEA3E4936010BCB078F77416937C3B08
:100190007423937C2B89147CB0801374201201018A
:1001A00020F205BEC00250F31B6D29B600011201FA
:1001B0000102010C1B6E691600020B6A00BE0800EA
:1001C0000078087E0400FF7E141B5220F21E4CCCE7
:1001D000681A7F10E47E1B804C8868070B1C04BCE7
:1001E000BD78F2C2F6CA0B1202EBDA0B7E0BB060DE
:1001F000C0CA0B120101DA0B0B0C4CDD68EE1BD0F0
:1002000078EA80ADD2F07E101080037E10085EB0D8
:100210005F800AD2F67E100A80057E100AC2F66D53
:10022000119F117E00201B6C7E6B7030F6021A3716
:1002300020F1051B6C7E6B6030F6041A261A243000
:10024000F0051B6D0B6A20A5EC3382F692F6500A7E
:100250007CEA9F229F217F127CAE4C44780F7C4524
:100260007C567C676C772E00F878EF80122F117C1B
:10027000B3337C3B9CB140047C3B0B70A5D8EE7C37
:10028000B230E005DAB8C44C3BCA380B207E0020FF
:100290007E3000BE18000078C1BE1008780730F428
:1002A00004C2F480B5CA287CB2BCBD38027CBD1241
:1002B00002EBDA28BC2D500A1BD0E4CA281200EA4F
:1002C00080F07CB213DAB84004C4CAB8C4CA28BEED
:1002D000F08040095CDD7805A5DA0260065EF07FFB
:1002E0001200EADA28A5DADA02010CBEF001680F82
:1002F00030F402240220F50620F70330F601042032
:10030000F229BCBC5025CAB87CBF13B0E67420509B
:100310001174307C8A5E80F0680812032B5EA00F97
:100320008003120101DAB8BCBC78DB30F40F743002
:10033000120101745830F302747812010130F6058D
:10034000742D020101742B20F5F8742020F7F3229C
:100350001B6C7E6BB010F1021B6C20F60B30E704B7
:10036000F404D2F27CCB800520E7057CDB0201306F
:100370005EF07F80F81B6E691600020B6A0030F099
:10038000076D221B0A200B0D1B0A8002011BE46C67
:1003900022BE3007500B7F1F2D312E34FFF77E39E0
:1003A000B0227CBF20E7A8742E4EF080020101121B
:1003B00004D5403D7CBD7003047CDB1205EC7C3D24
:1003C0004C3368101B307CBE20E40912038E70048D
:1003D0004C3378F07CBD7CD3BEA0FD481CBCAB5830
:1003E00018E49CBA2CB31801E47CDB0204761204F6
:1003F000D5406E7CBD041205EC7AFBA07CAE7CBDC2
:10040000A2F492F0C2F4400260010424051202EB4F
:100410007E30FF0B3012038ECA381200EA20F0043F
:100420004CDD68031203A2DA38BC3D78E6740E1284
:1004300000EA742B7EFBA030F707742D6EA0FF0B33
:10044000A07AFBA01201017EA00A7EFBB0847AFB99
:10045000A01200EA7EFBB01200EA9EF8000802013A
:100460000CD2F27ED0000201CB1204D540F37CBA4C
:100470002CBD041205EC7AFBA07CBA7CAE30E701FF
:10048000E40420F4044CDD6805D2F0C2F4042CBD71
:100490001202EB6C337EFBB0601B20E712147AFB78
:1004A000B012038ECA381200EADA380B3080E60444
:1004B0007AFBB01B3012038ECA381200EA4CDD689A
:1004C000071203A21BD080E19EF8000930F003124E
:1004D00003A202010C7CEA7CAF10F7037ED0067CFD
:1004E000FA1B6E693600020B6A200205342D2B20A0
:1004F0004C4248232E0053584F44494355502A4EEE
:10050000464547000420800102001040B4060B134A
:1005100013A01A04507569EEAF0102020202010233
:100520000203030403034E614E002B494E46002D87
:10053000494E46007D522D557CBE92E67CEB7CBA3E
:10054000601F0470287CB5C2E77E0400FF60067E51
:10055000140526D3227E14052F40047E14052AD3C9
:1005600022DA099F22CA2BCA2BC3CA09220A0A7E91
:10057000144D10AD109E083AF09E10267CB5C2E7CF
:100580007EA0567C9BA46E54FFFF2E54C511ACA9CF
:100590002D15E4A539CAB8CA1B20E70A120780DA6C
:1005A0001B1206CF800AF404120780DA1B12062FF2
:1005B000DAA87CB5337CB4334E50806C4424822F4F
:1005C000111478FBDA497407BE400A40099E400ABC
:1005D000CA0201140BA0CA486C442F117F012F11CD
:1005E0002F112F101478EFCA48CA49227F0F20E735
:1005F0003ABEB007400274070A0B2D109E14000982
:100600007E19B02EB0FB501F4C116817E47A19B058
:100610001B147E19B0047A19B0B40A0BE47A19B02D
:10062000A5D9ED0BA074017A19B0225EE0BF225D5E
:1006300022680D5D0078122D220B4068099F11225F
:100640002D000B0078F90207F41207B75C800B80CD
:100650006808248150072CB0500A0207FC2CB040D7
:10066000030207F97C8B5D1178267CB17CA5BE1056
:1006700080680A5D33780DA5BD80057F100207E60E
:100680006D0080307F017C5B7CB17CA5AD12802445
:100690005D337806A5BD80F080E1CA887D41AD4319
:1006A0007CB17CA5AD122D1450020B047C5BAD23F4
:1006B0002F01DA88A42D05BE008040060B80780447
:1006C00080982F007C437C507C617C720207D0BEF6
:1006D00024FFFF6806BE04FFFF78030207F4120739
:1006E000B75CB00468F57CB8A54868EF7CB87003C7
:1006F0009F1122A5B800030207FC2E008150079C21
:100700008038070207F99C8050ED0A51C2E74D512D
:1007100078030207E67E5400807E901A6C00800603
:100720001B9068142F11BF1040049F104CAB033076
:10073000E7EECAA86CAA80E8DA39DA587C4ABE50DB
:1007400080500A1B8068BC2F1150020B700207D02A
:100750003F8000004120000042C80000447A0000B1
:10076000461C400047C35000497424004B18968033
:100770004CBEBC205A0E1BCA6753C21C749DC5AE2A
:100780007C7B60065407681623231207A57CB754A8
:1007900038680A7F101207A212062F7F01227CB749
:1007A000543803241C6CAA2E5407507E4400FF0BBF
:1007B0002A0069120002222D0092D50E104E1080E0
:1007C0007D422D445002B2D54E50806C447CB822FC
:1007D0002C4450120B1C7E40005E507FBE1800005F
:1007E00078040B806816A2D57CB8137C4B7CB5923C
:1007F000E77C5B227E1CFFFF229F11227E24FF806C
:1008000020D5026C456D33227D51AD037D027D21E3
:10081000AD052D12AD352D2122CAF87EF300087CDE
:10082000BF5480B480167EB3000B70307EB3000AD4
:10083000702A7E37000EBE340002680302090D7C68
:10084000BF540F14681B14683B0BB1680302090DF9
:100850007EB3000D70067EB3000C601E02090D8091
:10086000197EB30010B4040F7EB3000D60030209BB
:100870000D7EB3000C600302090D7E340E557E24FC
:1008800000FF80797EB30010B404067EB3000D60D3
:1008900002807A7E73000C7CA75EA00F1B7068320A
:1008A0002E708078687E2400017CBA60053E241496
:1008B00078FB7E7300186C665C754D33680A7E3475
:1008C0000E577E2400FF80357E340E557E2400FFB7
:1008D000802B7E2400017CBA60053E241478FB7EC8
:1008E0007300196C665C754D33680A7E340E577E52
:1008F0002400FF80087E340E557E2400FF7A1F00FE
:10090000147E3400027A37001280078000121B1018
:100910008003121AF1DAF8227EB300085480BEB0C8
:100920008068030209E07EB3000B1BB1682F1468D6
:100930003E24E178030209CA242168030209E07E0B
:100940001F0081BE180000680280087E340DFF7E03
:100950002400FF7A1F00147E340012807D7E340E46
:100960002C7E2400FF7A1F00147E340029806B7EC9
:10097000B3000A1468191468280BB178637E340D2B
:10098000FB7E2400FF7A1F00147E340004804B7E1F
:10099000340E597E2400FF7A1F00147E3400088034
:1009A000397E1F007DBE180000680B7A1F00147E80
:1009B0001B701A3780247E340DE17E2400FF7A1FDD
:1009C00000147E34001A801280167E340E117E24AC
:1009D00000FF7A1F00147E34001B7A370012800358
:1009E000021B107E37000EBE37001250047A37000B
:1009F00012021AF17EB30010B404247EB30008B4CE
:100A0000021D7EB3000D6003020A897EB3000B70E5
:100A1000787EB3000A70727E37000E4D3368028014
:100A2000687E63000C7C765E700F1B60682B2E6006
:100A30008078567E2400017CB760053E241478FB44
:100A40007C656E60FF5E6300187A630018740E1296
:100A50001ABA74117E704080247E2400017CB76035
:100A6000053E241478FB7C656E60FF5E6300197A96
:100A7000630019740E121ABA74147E7080121ABAB6
:100A8000740E6C77121ABA8003021B10021B2C7EA4
:100A9000B30010B404247EB30008B4021D7EB3007A
:100AA0000D6003020B1E7EB3000B70727EB3000A52
:100AB000706C7E37000E4D33680280627E63000CDE
:100AC0007C765E700F1B6068282E608078507E24D4
:100AD00000017CB760053E241478FB7C654E630002
:100AE000187A630018740E121ABA74117E7010808E
:100AF000217E2400017CB760053E241478FB7C65D0
:100B00004E6300197A630019740E121ABA74147EB7
:100B10007020121ABA740E6C77121ABA8003021B74
:100B200010021B2CCA3B7A37008C7F306D337A372A
:100B3000008F807474387AB3008E7E37008CBE3498
:100B4000003850047A73008E12183F7E73008E0AAC
:100B5000572E540003900004F074CF900005F07EEF
:100B600017008F7E3400067E2400011B1A107E734E
:100B7000008E0A37CA397F137E1400087E040001F4
:100B800012176E1BFD1214437E73008E0A372D73ED
:100B90007E73008E0A272E37008F7A37008F7E37BC
:100BA000008C9D327A37008C7E37008C4D337884F0
:100BB000DA3B22CA3B7A37001A7F306D337A37002E
:100BC0001D807474387AB3001C7E37001ABE34005E
:100BD0003850047A73001C1218587E73001C0A5790
:100BE0002E540003900004F074AF900005F07E17BF
:100BF000001D7E3400067E2400011B1A107E730047
:100C00001C0A37CA397F137E1400087E04000112C3
:100C1000176E1BFD1214437E73001C0A372D737E62
:100C200073001C0A272E37001D7A37001D7E3700FF
:100C30001A9D327A37001A7E37001A4D337884DADB
:100C40003B227EB30010BEB00268207EB300087065
:100C50001A7EB3000B70147EB3000D700E7EB300CD
:100C60000C70087E37000E4D336803021B107EB3F4
:100C7000000AB4014774047AB30010E47AB3001890
:100C80007AB30019740E7E7001121ABA74127E7053
:100C900020121ABA74107E7008121ABA740E7E707E
:100CA00001121ABA74126C77121ABA74137E700891
:100CB000121ABA740E6C77121ABA801074037AB3CF
:100CC000001074FF7AB300187AB30019021B2CCA03
:100CD000F8740E6C77121ABA7411121AA57CFB30D4
:100CE000E20F74117C7F5E70FB121ABAE47AB300D3
:100CF000117CBF30E40A74117C7F4E7080121ABAE6
:100D00007EB3001124FD68461468480BB278477C16
:100D1000BF30E0427E08000874201214097E3700BC
:100D20000E12155B7A37000E7EB30008546024E083
:100D3000680D24E0680E2440780F121026801712E8
:100D400016238012121B4D800D121B108008120FEB
:100D5000BF8003121082DAF822CA3B7A3700857FFF
:100D6000307E3400C87A37008A6D337A3700888045
:100D7000657E270085BE24004008057E7040800205
:100D80007C757A730087A9C7AF740E7E7001121A42
:100D9000BA7411121AA530E0107E37008A7D231B29
:100DA000247A27008A4D3378E87F032E1700887451
:100DB000407E7001121A90D202A9D7AF7E730087CD
:100DC0000A277D322E3700887A3700887E370085E3
:100DD0009D327A3700857E3700854D337893DA3B34
:100DE000221A0353005400430020004800490044E5
:100DF000002000440065006D006F00040309041228
:100E000001000200000040BF3401FF0001010200A8
:100E100001050C0901A101150025FF750895400980
:100E200001B1020901810209019102C009022900F0
:100E300001010080320904000002030000000921C2
:100E400001010001221B0007058103400001070585
:100E50000103400001000001000803530054004357
:100E600000CAF8740E7E7001121ABA7414121AA510
:100E70007CFB30E60874147E7080121ABA7CBF3096
:100E8000E0587E1400407E04000174011218267E92
:100E90001400407E04000174211214097E1F0079A1
:100EA000BE18000068327E1400407E040001121853
:100EB00010702574146C77121ABA75F40075DC0082
:100EC000E47E34FE077E24007E7A1BB07E34000A66
:100ED00012197A75C76080FED200DAF822CA7BCA7E
:100EE0006BCA5BCA4BCAD8CA79CA2BCA1BCA0BC009
:100EF000D0C083C0827406121AA57CFB7402121A39
:100F0000A57CDB7404121AA57CEB7CBF30E10312D4
:100F10001B517CBF30E20312147C7CBD30E0031215
:100F20000CCF7CBD30E1031216517CBE30E10312C0
:100F30000E617CBF30E003121B50D082D083D0D032
:100F4000DA0BDA1BDA2BDA79DAD8DA4BDA5BDA6B1E
:100F5000DA7B3253B2FC43B10374807E34FE077EE9
:100F600024007E7A1BB07E34FE077E24007E7E1B2A
:100F7000B030E0F275DC0075F490E46C77121ABAC8
:100F800074017E7009121ABA74077E703F121ABA81
:100F900074097E703F121ABA740B7E7007121ABA67
:100FA00074017E7001121ABA74027AB30010E47AE6
:100FB000B300117AB300187AB30019A9D7AF22CAC7
:100FC000F8740E6C77121ABA7411121AA520E15334
:100FD0007E370012BE34004028057EF04080027C3F
:100FE000F77E0F00147C7F74201216D20A2F7E37F2
:100FF00000129D327A3700120A157E1F00142D311F
:101000007A1F00147E3700124D33780F74117E70F2
:101010000A121ABAE47AB30011800874117E7002C1
:10102000121ABADAF8227EB30009BEB00D50507E13
:10103000A003A49010377302105E02106102107FAB
:1010400002106402107F02106702106A02106D0223
:10105000107002107302107602107902107C0208E0
:10106000190209F4020A8F0211CD020918021B4766
:1010700002112C020C4202129B0216FB021B4A02B6
:101080001B10740E6C77121ABA7411121AA530E084
:10109000467E0F001474201214090A1B7E270012CA
:1010A0009D217A2700127E1F00142D317A1F001413
:1010B0007E3700124D33781774117E7048121ABAB9
:1010C000E47AB300117EB30009B4090BD201227493
:1010D000117E7040021ABA2275E900A9D7BA75EAE2
:1010E000007E34FE997E24007E7E1BB044047A1B71
:1010F000B07593007594FF75910075920075950019
:1011000075960075B10075B20075B30075B40075C1
:10111000C90075CA0075CB0075CC0075E10075E299
:1011200000120F53A9D7AFD2AFC2C0227EB30008BE
:10113000B480227EB3000B701C7EB3000A70167E52
:10114000B3000D70107EB3000C700A7E37000EBE27
:101150003400016803021B107EB30010B4040A7E41
:10116000340E577E2400FF80087E340E557E240006
:10117000FF7A1F00147E3400017A370012021AF140
:10118000CA3B7F707CF57CE67CD77CCBCA7B0A3679
:101190006D222F110A1F6D00120808DA0B120BB313
:1011A0001218587405900004F074A8900005F0908F
:1011B00000067AEBC09000077AEBD09000087AEB3B
:1011C000E09000097AEBF0121443DA3B22CAF87E71
:1011D000B3000870237EB3000D701D7EB3000C7049
:1011E000177EB3000B70117EF3000ABEF08050082A
:1011F0007E37000E4D336805121B108017E47C7F8C
:10120000121ABA4CFF68047403800274027AB300A5
:1012100010121B2CDAF822CA797A0F0049121871C1
:101220007453900004F0E4900005F0900006F090F4
:101230000007F07E3400497E2400007A1F00957E6E
:101240001400087E0400017E1F00491200CE7D7349
:101250002E7400081214437D37DA79227584017EDA
:1012600044041FE47A49B01B4478F97EF8009E7E5E
:101270000400FF7E141B560B0A405D44681A692067
:1012800000020B0E0B44800A7E0BB07A29B00B24AF
:101290000B0C1B4478F280DF021B397EB30010B4C4
:1012A000041D7EB30008B481167EB3000B70107E5F
:1012B000B3000D700A7E37000EBE340001680302D1
:1012C0001B107E340E557E2400FF7A1F00147E34DE
:1012D00000017A370012021AF1CA3B7CF57CE67CE9
:1012E000D77CCB7C7EAC7F120B2412183F74059008
:1012F0000004F074C8900005F09000067AEBC090EE
:1013000000077AEBD09000087AEBE09000097AEBC6
:10131000F0121443DA3B227CABBEA03B28037EA034
:101320003B744C900000F07445900001F0744490C0
:101330000002F07428900003F09000047AEBA00AF9
:101340003ACA397F107E1400057E04000112176E20
:101350001BFD0214437CABBEA03B28037EA03B7464
:101360004C900000F07445900001F074449000022D
:10137000F07440900003F09000047AEBA00A3ACA9F
:10138000397F107E1400057E04000112176E1BFDCC
:10139000021443CAF87CFB7A1F0091121871744C36
:1013A000900004F07401900005F09000067AEBF0D4
:1013B000E4900007F07E0F00917E3400087E240048
:1013C00001791100021B1A00121443DAF822CA3BF9
:1013D0007F307A73009E7AB3009D121B1E0B347F00
:1013E00003120BB31218587403900004F074A79002
:1013F0000005F07EB3009D900006F07EB3009E9045
:101400000007F0121443DA3B22CA3B7F30CAB80B04
:10141000FD7416121AA57AFBB039BFFFFF800C29A4
:10142000BFFFFE121AA57A3BB00B747EFBA07CBAFC
:10143000147AFBB04CAA78E729BFFFFF9EF800039F
:10144000DA3B22CA797E7400C8A9C7AF740E7E70D9
:1014500001121ABA7411121AA530E0087D371B74F4
:101460004D3378F07E1400007E04000174407E70DD
:1014700001121A90D202A9D7AFDA7922E46C77125E
:101480001ABA74027AB30010E47AB30011740E7EB3
:101490007001121ABA74117E7048121ABA740E7E54
:1014A0007001121ABA74147E7090121ABA740E6C0B
:1014B00077021ABACA3B7D727CCB12183F74069031
:1014C0000004F074C6900005F07401900006F090DE
:1014D00000077AEBC09000087AEB707E3400097E3A
:1014E0002400011B1A70121443DA3B22CA3B7D729E
:1014F0007CCB12183F7406900004F074C69000056F
:10150000F07402900006F09000077AEBC09000089B
:101510007AEB707E3400097E2400011B1A701214CD
:1015200043DA3B22CA3B7D727CCB12183F74069093
:101530000004F074C6900005F0E4900006F09000FE
:10154000077AEBC09000087AEB707E3400097E24A5
:1015500000011B1A70121443DA3B227A3700997E7D
:1015600034009A7E2400007E1B307E34009B7E2453
:1015700000007A1B307E3400997E2400007E1B30F0
:101580007E34009C7E2400007A1B307E37009B2234
:10159000CA3B1218717443900004F0E4900005F007
:1015A000900006F0900007F07E340008CA397F10E2
:1015B0007E1400087E04000112176E1BFD121443F6
:1015C000DA3B22CA3B7F311218717444900004F058
:1015D0007401900005F0E4900006F0900007F07EA2
:1015E0003400087E240001797100021B1A60121475
:1015F00043DA3B22CA797A0F00757E3400757E2467
:1016000000007A1F00957E1400007E0400017E1FFA
:1016100000751200CE7D732E7400081214437D37BE
:10162000DA79227EB300091BB1681714681A24FA0C
:10163000680D146810146813240A781202167E02CA
:1016400016A80217230217D1021B41021B44021BDA
:1016500010CAF8740E7E7001121ABA7411121AA50B
:101660007CFB30E50874117E7040121ABA7CBF30E2
:10167000E20774116C77121ABAC202DAF8227EB34A
:101680000010B404097EB30008BEB0A16803021BB9
:10169000107E3400807E2400017A1F00147E370003
:1016A0000E7A370012021AF17EB30010B404097EDC
:1016B000B30008BEB0216803021B107E3400807E98
:1016C0002400017A1F00147E37000E7A37001202C0
:1016D0001B02CA3BCA787F30CAB8800B7EFBB07E43
:1016E0003B700B74121ABA29AFFFFF7CBA1439BFD2
:1016F000FFFF4CAA78E61BFDDA3B227EB30010B454
:10170000041B7EB30008B401147EB3000B700E7E80
:10171000B3000D70087E37000E4D336803021B10B6
:10172000021B2C7EB30010B404097EB30008BEB0C7
:10173000A16803021B107E18001F7A1F00147E345C
:1017400000017A370012021AF1CAF87CFB1218580D
:101750007403900004F074A3900005F074029000EC
:1017600006F09000077AEBF0121443DAF8227F219A
:101770007F707F10800A7E2B307A1B300B540B3425
:10178000691FFFFD7D011B04790FFFFD4D1178E6F8
:101790007F1722CAF87CFB12183F7402900004F0F5
:1017A00074C4900005F09000067AEBF0121443DA4E
:1017B000F822CAF87CFB1218587402900004F074E6
:1017C000A5900005F09000067AEBF0121443DAF8C9
:1017D000227EB30010B404097EB30008BEB02168B5
:1017E00003021B107E73000B7A73001F021B2C80F8
:1017F00012000000000000000000000000000000D7
:101800000000007D231B344D2278E6220B0C0B1CBC
:101810007E0BB06005BE1BB068F29E1BB060067404
:10182000FF4002740122CAF80A5B2E5400201214F1
:10183000097CFB74146C77121ABA7CBFDAF8227434
:101840004F900000F0744C900001F074459000023D
:10185000F07480900003F022744C900000F0744308
:10186000900001F07444900002F07480900003F046
:10187000227437900000F07453900001F07445908A
:101880000002F07447900003F022A9C7AF740E7EE7
:101890007001121ABA74146C77121ABAC200A9D75E
:1018A000AF2212183F7402900004F074C790000534
:1018B000F07401900006F002144312183F74029075
:1018C0000004F074C0900005F07401900006F0026E
:1018D00014431218587402900004F074A390000589
:1018E000F07401900006F00214431218587402902C
:1018F0000004F074A4900005F07401900006F0025A
:10190000144312183F7402900004F074C290000552
:10191000F07401900006F0021443121858740290FB
:101920000004F074A2900005F07402900006F0022A
:10193000144312183F7402900004F074C190000523
:10194000F07401900006F0021443121858740290CB
:101950000004F074A0900005F07401900006F002FD
:1019600014431218587402900004F074A2900005F9
:10197000F07401900006F0021443CA797D73800769
:101980007E3403E81217EF7D371B744D3378F1DA9C
:1019900079221218587402900004F074A190000586
:1019A000F07401900006F00214437D237E341A0A7D
:1019B0007D131B147D3178F87D121B147D2178EC8A
:1019C0002212183F7402900004F074C0900005F0D9
:1019D000E4900006F00214431218587402900004B8
:1019E000F074A4900005F0E4900006F00214431295
:1019F000183F7402900004F074C7900005F0E49062
:101A00000006F00214431218587402900004F07497
:101A1000A0900005F0E4900006F00214431218585C
:101A20007402900004F074A3900005F0E4900006A6
:101A3000F002144312183F7402900004F074C29034
:101A40000005F0E4900006F002144312183F7402FF
:101A5000900004F074C1900005F0E4900006F002DC
:101A600014431218587402900004F074A1900005F9
:101A7000F0E4900006F0021443121858740290002B
:101A800004F074A2900005F0E4900006F002144304
:101A90007CA77C7B0A5A2E5400201216D274117E29
:101AA0007001021ABA7CABE5FC20E7FB7CBA4480EB
:101AB000F5FCE5FC20E7FBE5EC227CA77C7BE5FC64
:101AC00020E7FB7CB7547FF5FC7AA1EC2212185872
:101AD0007401900004F074A6900005F00214431203
:101AE000183F7401900004F074C3900005F00214D4
:101AF0004374037AB3001174117E7040121ABA0253
:101B00000FBF74047AB3001174117E7040021ABAC8
:101B100074057AB3001174117E7060021ABA6D33C5
:101B200080020B347E0BB00B1470F722E47AB30002
:101B30001174117E7048021ABA1210D81200038074
:101B4000FB021B10021B10021B10021B10021B10B9
:101B50002222283029000004007900FF1B700004B5
:101B6000007D000000000004008100000000000073
:091B700040535443495350230033
:00000001FF
