:10000000021C387EB30153BEB00D50507EA003A435
:100010009000147302003B02003E02005C020041AB
:1000200002005C02004402004702004A02004D0246
:100030000050020053020056020059020BAE020E9D
:10004000CD0211490218CC020F6C02005F02165A51
:10005000020E28021C7702201C0200C70225AF02F4
:1000600025AF220225927A1F01767E3401797E2403
:1000700000007E1B307E34017A7E2400007A1B3023
:100080007E3401787E2400007E1B307E34017B7E2E
:100090002400007A1B307E3401777E2400007E1B12
:1000A000307E34017C7E2400007A1B307E34017661
:1000B0007E2400007E1B307E34017D7E2400007A89
:1000C0001B307E1F017A220225AF220214915D228D
:1000D000680D5D0078122D220B4068099F11222DBA
:1000E000000B0078F902026A12022D5C800B806816
:1000F00008248150072CB0500A0202722CB0400331
:1001000002026F7C8B5D1178267CB17CA5BE1080CD
:10011000680A5D33780DA5BD80057F1002025C6D15
:100120000080307F017C5B7CB17CA5AD1280245DBA
:10013000337806A5BD80F080E1CA887D41AD437C5F
:10014000B17CA5AD122D1450020B047C5BAD232FA6
:1001500001DA88A42D05BE008040060B807804805B
:10016000982F007C437C507C617C7202024674F8BC
:100170006CAA6E40806E0080BEB0FF68277C837CD6
:10018000975C3B5C7BBF10682AF4400D7C382D15D2
:10019000F45C3B500F0B04800B7C792D35F45C7BB9
:1001A00050020B24BF10680B7CB020E7067CB42003
:1001B000E701B3227EA020800C7EA01080057EA0E7
:1001C000086C556D333392D5500A6E34FFFF6E24A0
:1001D000FFFF0B1CA5EC3340062F11D5F0F6227C57
:1001E000BA247EA2D5137C767C65A5CC92E77C5B95
:1001F000227F707F517EC400007ED401527E940223
:10020000040202AB4005E47A7BB0227A7BB00B7C1F
:10021000227F707F517E6F01A87E9402200202AB84
:100220004005E47A7BB0227A7BB00B7C222D0092D1
:10023000D50E104E10807D422D445002B2D54E5046
:10024000806C447CB8222C4450120B1C7E40005E13
:10025000507FBE18000078040B806816A2D57CB8C9
:10026000137C4B7CB592E77C5B227E1CFFFF229FB8
:1002700011227E24FF8020D5026C456D3322540F5D
:100280002490D43440D430F30CBEB0414007BEB00B
:100290005B500224204CCC68021BC00B84D3899491
:1002A0004CCC680B742012029580F5CA3B6D889F78
:1002B000337CAE7E5BB00B5C7007C37D38DA3B8964
:1002C00094B42569C2F37E5BB00B5CA5F824D0BE64
:1002D000B00A501B7E500A20F60DAC5CA52D7CCBDD
:1002E00070034EF00180DDAC5DA52D7CDB80D52454
:1002F000CFBEB01AA5E850055E00DFD2F3900680AD
:10030000A3E4936011BCB078F77417934CAB30F64C
:10031000B34EF08080AEA3E4936010BCB078F77465
:1003200016937C3B7423937C2B89147CB0801374CC
:100330002012029520F205BEC00250F31B6D29B6B3
:1003400000011202950202A01B6E691600020B6AE0
:1003500000BE08000078087E0400FF7E14261A20E4
:10036000F21E4CCC681A7F10E47E1B804C88680714
:100370000B1C04BCBD78F2C2F6CA0B12047FDA0B68
:100380007E0BB060C0CA0B120295DA0B0B0C4CDD71
:1003900068EE1BD078EA80ADD2F07E101080037E2C
:1003A00010085EB05F800AD2F67E100A80057E10CB
:1003B0000AC2F66D119F117E00201B6C7E6B70309F
:1003C000F6021A3720F1051B6C7E6B6030F6041ABA
:1003D000261A2430F0051B6D0B6A20A5EC3382F63B
:1003E00092F6500A7CEA9F229F217F127CAE4C44F9
:1003F000780F7C457C567C676C772E00F878EF8010
:10040000122F117CB3337C3B9CB140047C3B0B70BE
:10041000A5D8EE7CB230E005DAB8C44C3BCA380B44
:10042000207E00207E3000BE18000078C1BE10087B
:10043000780730F404C2F480B5CA287CB2BCBD3859
:10044000027CBD12047FDA28BC2D500A1BD0E4CAFE
:100450002812027E80F07CB213DAB84004C4CAB815
:10046000C4CA28BEF08040095CDD7805A5DA0260C8
:10047000065EF07F12027EDA28A5DADA0202A0BE5A
:10048000F001680F30F402240220F50620F7033053
:10049000F6010420F229BCBC5025CAB87CBF13B0B9
:1004A000E67420501174307C8A5E80F06808120473
:1004B000BF5EA00F8003120295DAB8BCBC78DB30B7
:1004C000F40F7430120295745830F30274781202EB
:1004D0009530F605742D020295742B20F5F87420E2
:1004E00020F7F3221B6C7E6BB010F1021B6C20F620
:1004F0000B30E704F404D2F27CCB800520E7057CC6
:10050000DB0202C45EF07F80F81B6E691600020BEE
:100510006A0030F0076D221B0A200B0D1B0A8002B7
:1005200002AFE46C22BE3007500B7F1F2D312E34FA
:10053000FFF77E39B0227CBF20E7A8742E4EF080F2
:10054000020295120669403D7CBD7003047CDB12FB
:1005500007807C3D4C3368101B307CBE20E40912C0
:10056000052270044C3378F07CBD7CD3BEA0FD48DE
:100570001CBCAB5818E49CBA2CB31801E47CDB0219
:10058000060A120669406E7CBD041207807AFBA041
:100590007CAE7CBDA2F492F0C2F44002600104245F
:1005A0000512047F7E30FF0B30120522CA3812027A
:1005B0007E20F0044CDD6803120536DA38BC3D7845
:1005C000E6740E12027E742B7EFBA030F707742DAA
:1005D0006EA0FF0BA07AFBA01202957EA00A7EFB04
:1005E000B0847AFBA012027E7EFBB012027E9EF8DF
:1005F00000080202A0D2F27ED00002035F12066958
:1006000040F37CBA2CBD041207807AFBA07CBA7C34
:10061000AE30E701E40420F4044CDD6805D2F0C2FA
:10062000F4042CBD12047F6C337EFBB0601B20E70A
:1006300012147AFBB0120522CA3812027EDA380B85
:100640003080E6047AFBB01B30120522CA38120251
:100650007E4CDD68071205361BD080E19EF800094C
:1006600030F0031205360202A07CEA7CAF10F703DB
:100670007ED0067CFA1B6E693600020B6A200206E9
:10068000C82D2B204C4248232E0053584F44494339
:1006900055502A4E46454700042080010200104074
:1006A000489A9FA7A734AE98E409FD824303030349
:1006B000030303030304050505054E614E002B49A2
:1006C0004E46002D494E46007D522D557CBE92E689
:1006D0007CEB7CBA601F0470287CB5C2E77E040006
:1006E000FF60067E1406BAD3227E1406C340047E41
:1006F0001406BED322DA099F22CA2BCA2BC3CA0909
:10070000220A0A7E144D10AD109E083AF09E102663
:100710007CB5C2E77EA0567C9BA46E54FFFF2E548E
:10072000C511ACA92D15E4A539CAB8CA1B20E70A22
:10073000120874DA1B1207C3800AF404120874DA70
:100740001B1200CEDAA87CB5337CB4334E50806CDB
:100750004424822F111478FBDA497407BE400A4002
:10076000099E400ACA0201140BA0CA486C442F110A
:100770007F012F112F112F101478EFCA48CA492278
:100780007F0F20E73ABEB007400274070A0B2D1016
:100790009E1400097E19B02EB0FB501F4C11681733
:1007A000E47A19B01B147E19B0047A19B0B40A0B9C
:1007B000E47A19B0A5D9ED0BA074017A19B0225EC4
:1007C000E0BF22BE24FFFF6806BE04FFFF780302DD
:1007D000026A12022D5CB00468F57CB8A54868EF87
:1007E0007CB870039F1122A5B800030202722E008C
:1007F0008150079C80380702026F9C8050ED0A519F
:10080000C2E74D51780302025C7E5400807E901A4C
:100810006C0080061B9068142F11BF1040049F10BD
:100820004CAB0330E7EECAA86CAA80E8DA39DA5894
:100830007C4ABE5080500A1B8068BC2F1150020BAE
:10084000700202463F8000004120000042C80000C4
:10085000447A0000461C400047C3500049742400FD
:100860004B1896804CBEBC205A0E1BCA6753C21C44
:10087000749DC5AE7C7B600654076816232312085E
:10088000997CB75438680A7F101208961200CE7F00
:1008900001227CB7543803241C6CAA2E5408447ED1
:1008A0004400FF0B2A0069120002227D51AD037D36
:1008B000027D21AD052D12AD352D21226D00741064
:1008C0004D00780B4D2278278D317D126D22227DCF
:1008D000437D326D222F112D445002A50FBF1040D1
:1008E000049F100B901478ED7F016D227D34227DE2
:1008F000417D138D247D022F004004BD0440049DE2
:10090000040B141478F17D237D317D106D00227F5E
:10091000701B3468130B347820A2B2E43378057E60
:10092000700180116C77800DA2B3E43378057E707E
:100930000180026C773977000229B7000260030258
:1009400009C829B7000360257E1F001C7937000AFB
:10095000792700087E1F001C7937001279270010C4
:100960009F117937001679270014020A226957006F
:100970000A694700087E1F001C7F019F02BE081302
:10098000882803020A2269570012694700107F0174
:100990009F02BE0800C83803020A22793700127984
:1009A0002700107E3400031B7A30BE3400037872B7
:1009B0007F072E140014693000020B0A200B1C79EB
:1009C0003000021B0A20805A29B7000370547E1F92
:1009D000001C7937000E7927000C6917000A690797
:1009E00000086937000E6927000C9F10BE18138895
:1009F00028137E1400041B7A109F007917001A79BF
:100A0000070018801DBE1803E828067E3400028007
:100A1000047E3400011B7A309F117937001A792740
:100A2000001829770002397700030B7A30BE3400B2
:100A3000026806BE34000178337F072E140018695F
:100A40003000020B0A200B1C793000021B0A2069BF
:100A500037001A69270018BE18012C400F6D331B90
:100A60007A309F117937001A79270018226C666C4A
:100A7000550A1509B1001024D3BEB0384003020B4B
:100A8000867EA003A4900A8973020B81020B860262
:100A90000B86020B31020B36020B3B020B40020BA2
:100AA00045020B4A020B4F020B54020B59020B5E1C
:100AB000020B86020B86020B86020B86020B860255
:100AC0000B86020B86020B63020B86020B6D020B78
:100AD00086020B77020B7C020B86020B86020B86CA
:100AE000020B86020B86020B86020B86020B860225
:100AF0000B86020B86020B86020B86020B86020B0C
:100B000086020B86020B86020B86020B86020B8680
:100B1000020B86020B86020B86020B86020B8602F4
:100B20000B86020B86020B86020B68020B86020BF9
:100B30007290255F8053902560804E90256180499A
:100B40009025628044902563803F902564803A9090
:100B5000256580359025668030902567802B90250F
:100B6000688026902569802190256A801C90256BDD
:100B7000801790256C801290256D800D90256E80D9
:100B80000890256F8003902570E4937C7B0A1509FB
:100B9000B10011B42E054E70800B500A1619710069
:100BA000080B600B50BE60085003020A7122CAF89D
:100BB0007EF301527CBF5480B480167EB301557021
:100BC000307EB30154702A7E370158BE340002686B
:100BD00003020CA67CBF540F14681B14683B0BB1B6
:100BE0006803020CA67EB3015770067EB3015660FF
:100BF0001E020CA680197EB3015CB4040F7EB30103
:100C0000576003020CA67EB301566003020CA67E59
:100C10003414857E2400FF807D7EB3015CB404061D
:100C20007EB301576002807E7E7301567CA75EA072
:100C30000F1B7068362E707F68040B7078687E24F6
:100C400000017CBA60053E241478FB7E7301646C5D
:100C5000665C754D33680A7E3414877E2400FF80FD
:100C6000357E3414857E2400FF802B7E2400017C99
:100C7000BA60053E241478FB7E7301656C665C7572
:100C80004D33680A7E3414877E2400FF80087E344A
:100C900014857E2400FF7A1F01607E3400027A37BB
:100CA000015E800780001225AF8003122571DAF8FB
:100CB00022CA79740E7E700112254C7414122537E5
:100CC0007CFB30E60874147E708012254C7CBF20BB
:100CD000E003020D727E1400407E040001742112B4
:100CE0001DA37AB3015A7E1F016A4D237803020DBA
:100CF000706CFF80737EB3015B1A3B7E0F016A2D1F
:100D0000317D207E1BA00A4F2E4400407A91827ACA
:100D100081837EEBE0BCEA7839047AB3015B7E73B1
:100D2000015B1A372D317D207E1BB0703974146C35
:100D30007712254C75F40075DC00E47E34FE077EE6
:100D400024007E7A1BB07E34000A12240075C7602E
:100D500080FE7E1F016A7E1B70BCE77804740180F0
:100D600001E47AB3015B0BF07E73015ABC7F3885D6
:100D7000D200DA79227D437F70BE4400C05008E47F
:100D80007A7BB039B700047E3401007EA0017D2358
:100D90009E240040BD24380A7D232E240040BD241B
:100DA000500B2E3401000BA0BEA01028E129B70083
:100DB0000239B7000329B7000139B70002BEA010FD
:100DC0002806E439B700012239A70001297700027B
:100DD00029670003BC67784F29B70001BC7B7847BF
:100DE000BE60002842BE7000283DBEB00028387E9C
:100DF0007BB0700C39A700057A7BA0E439B70004FA
:100E00007E7BB0BCBA781B7F170B367E1BB0047A92
:100E10001BB0BEB0644010745A39B7000439A70043
:100E20000522E439B70004227EB3015CBEB002683B
:100E3000207EB30152701A7EB3015570147EB30147
:100E400057700E7EB3015670087E3701584D3368D7
:100E5000030225AF7EB30154B4015F74047AB30179
:100E60005CE47AB301647AB30165740E7E7001129A
:100E7000254C74127E702012254C74107E7008125E
:100E8000254C740E7E700212254C74127E70201256
:100E9000254C74107E700812254C740E7E70011261
:100EA000254C74126C7712254C74137E7008122531
:100EB0004C740E6C7712254C801074037AB3015C6D
:100EC00074FF7AB301647AB301650225CB7EB30166
:100ED0005CB404247EB30152B4021D7EB30157609A
:100EE00003020F667EB30155707C7EB301547076A9
:100EF0007E3701584D336802806C7E6301567C76E4
:100F00005E700F1B60682F2E607F68040B60785640
:100F10007E2400017CB760053E241478FB7C656E5E
:100F200060FF5E6301647A630164740E12254C7481
:100F3000117E704080247E2400017CB760053E2431
:100F40001478FB7C656E60FF5E6301657A63016502
:100F5000740E12254C74147E708012254C740E6C25
:100F60007712254C80030225AF0225CB7EB30152B8
:100F70005480BEB0806803020FF77EB301551BB1E9
:100F800068191468280BB1786E7E3414307E240002
:100F9000FF7A1F01607E34001280547E3414427E3A
:100FA0002400FF7A1F01607E34004380427EB3013B
:100FB000541468191468280BB1783C7E34142C7EC4
:100FC0002400FF7A1F01607E34000480227E3414E6
:100FD000897E2400FF7A1F01607E34000880107E25
:100FE00034140E7E2400FF7A1F01607E34001E7AC6
:100FF00037015E800580000225AF7E370158BE377D
:10100000015E50047A37015E022571CA3B7A3701CE
:101010009F7F306D337A3701A202109C74387AB307
:1010200001A17E37019FBE34003850047A7301A1BC
:1010300012239D7E7301A10A572E540003900004D1
:10104000F074CF900005F07E1701A27E3400067E7A
:101050002400011B1A107E7301A10A37CA397F13BD
:101060007E1400087E0400011220901BFD7E730197
:10107000A10A372E3400080A371215867E7301A1A3
:101080000A372D737E7301A10A272E3701A27A3702
:1010900001A27E37019F9D327A37019F7E37019FE3
:1010A0004D33680302101CDA3B22CA3B7A37019A9F
:1010B0007F306D337A37019D02113B74387AB3016A
:1010C0009C7E37019ABE34003850047A73019C121A
:1010D00023B67E73019C0A572E540003900004F03F
:1010E00074AF900005F07E17019D7E3400067E24CB
:1010F00000011B1A107E73019C0A37CA397F137EC8
:101100001400087E0400011220901BFD7E73019CD8
:101110000A372E3400080A371215867E73019C0A9E
:10112000372D737E73019C0A272E37019D7A370174
:101130009D7E37019A9D327A37019A7E37019A4D0A
:101140003368030210BBDA3B227EB3015CB4042493
:101150007EB30152B4021D7EB3015760030211DC5D
:101160007EB3015570767EB3015470707E3701589E
:101170004D33680280667E6301567C765E700F1B7D
:1011800060682C2E607F68040B6078507E2400011C
:101190007CB760053E241478FB7C654E6301647A5D
:1011A000630164740E12254C74117E701080217ED0
:1011B0002400017CB760053E241478FB7C654E63F7
:1011C00001657A630165740E12254C74147E7020DB
:1011D00012254C740E6C7712254C80030225AF0249
:1011E00025CB7F7029B7000EB40113E439B7000E88
:1011F0006D337937000A7937000C39B7000F69274A
:1012000000086937000CBD327807740139B7000F48
:10121000227F072E14000A0B0A300B341B0A306998
:10122000D7000669C700047F16E41201B4691700ED
:1012300012690700101200CE7F0169B7000A7D2BEA
:10124000E41201B912016E38067E180001800A7D91
:101250003B6D22BF16500A9F11793700021B7A207E
:10126000226D337937000A7F072E14000C0B0A30E9
:101270000B341B0A3022CAF8740E6C7712254C749A
:10128000111225377CFB30E20F74117C7F5E70FBFE
:1012900012254CE47AB3015D7CBF30E40A74117C02
:1012A0007F4E708012254C7EB3015D24FD6846148C
:1012B00068480BB278477CBF30E0427E0801527428
:1012C00020121DA37E370158121E817A3701587EE5
:1012D000B30152546024E0680D24E0680E24407885
:1012E0000F12000380171222768012122617800D2B
:1012F0001225AF80081215F3800312179EDAF82228
:10130000CA3B7A3701867F307E3400C87A37018B3A
:10131000A9C7AF740E7E700112254C6D337A370168
:10132000897E270186BE24004008057E7040800229
:101330007C757A730188741112253730E0107E377E
:10134000018B7D231B247A27018B4D3378E87F03A3
:101350002E1701897EB301887E70011225227E73CB
:1013600001880A277D322E3701897A3701897E3735
:1013700001869D327A3701867E730188BE704050A7
:10138000A0D202A9D7AFDA3B2253B2FC43B1037417
:10139000807E34FE077E24007E7A1BB07E34FE07FA
:1013A0007E24007E7E1BB030E0F275DC0075F49088
:1013B000E46C7712254C74017E700812254C74077A
:1013C0007E703F12254C74097E703F12254C740BC1
:1013D0007E700712254C74016C7712254C74027ACA
:1013E000B3015CE47AB3015D7AB301647AB3016559
:1013F0007E3401007E2400C27A1F018D7AB30191F0
:101400007AB3019274087AB30193A9D7AF221E036D
:1014100053005400430020005500530042002000B8
:10142000530065007200690061006C000403090448
:101430001201000202000040BF3402FF000101025D
:10144000000109024300020100803209040000018A
:1014500002020100052400100105240100010424FA
:1014600002020524060001070582034000FF09046B
:101470000100020A00000007058102400000070584
:101480000102400000000001000803530054004323
:1014900000CA7BCA6BCA5BCA4BCA3BCA2BCA1BCAEF
:1014A0000BC0D0C083C0827EF1FC74061225377C4D
:1014B000EB74021225377CCB74041225377CDB7C5D
:1014C000BE30E1031200CA7CBE30E2031219167C62
:1014D000BC30E0031212767CBC30E103121F457C65
:1014E000BC30E203121F9F7CBD30E103120CB17CC3
:1014F000BE30E0031200627AF1FCD082D083D0D0FB
:10150000DA0BDA1BDA2BDA3BDA4BDA5BDA6BDA7BF3
:10151000329F117A1F00727E1800287A1F00767E93
:1015200034999A7E243E997A1F008274017AB3001E
:10153000807E3400057A37007A9F117A1F00867EFC
:101540001800287A1F008A7E34CCCD7E243F4C7A46
:101550001F00967AB300947E3400057A37008E9F80
:10156000117A1F005E7E1801907A1F00627E34CCD3
:10157000CD7E243F4C7A1F006E7AB3006C7E34001F
:10158000057A37006622CA3B7D737E3400C87A37FD
:1015900001ADA9C7AF740E7E700112254C6D66BEF9
:1015A00074004028057E704080027C7F7A7301AC15
:1015B000741112253730E0107E3701AD7D231B24D6
:1015C0007A2701AD4D3378E87D162E1400007E0495
:1015D00000017EB301AC7E70011225227E7301AC46
:1015E0000A272D629D72BE704050B4D202A9D7AFB7
:1015F000DA3B22CAF8740E6C7712254C741112254E
:101600003720E1537E37015EBE34004028057EF06E
:101610004080027CF77E0F01607C7F7420121FCA1D
:101620000A2F7E37015E9D327A37015E0A157E1FD2
:1016300001602D317A1F01607E37015E4D33780FD6
:1016400074117E700A12254CE47AB3015D8008742F
:10165000117E700212254CDAF8227EB30152B4805A
:10166000227EB30155701C7EB3015470167EB30107
:101670005770107EB30156700A7E370158BE340091
:101680000168030225AF7EB3015CB4040A7E341402
:10169000877E2400FF80087E3414857E2400FF7A34
:1016A0001F01607E3400017A37015E022571CA3B5A
:1016B0007F707CF57CE67CD77CCBCA7B0A366D22BA
:1016C0002F110A1F6D001208ABDA0B1210AA122399
:1016D000B67405900004F074A8900005F090000620
:1016E0007AEBC09000077AEBD09000087AEBE0909C
:1016F00000097AEBF07E34000A121586DA3B227E6E
:10170000B3016624EC681A24F6682424F6682E24B3
:101710001E78397E0800107E3426AC7E2400FF80BF
:10172000287E0800107E3426A37E2400FF801A7EC7
:101730000800107E34269A7E2400FF800C7E08006C
:10174000107E3426917E2400FF1201F1020A6D7E84
:1017500037009ABE340001781D6D337A37009A7EC7
:101760003400057A3701AF7E1800147E14999A7EF2
:10177000043E9912242F7E3700B6BE340001781D36
:101780006D337A3700B67E3400057A3701B17E18A2
:1017900000147E14CCCD7E043F4C02244622740EED
:1017A0006C7712254C741112253730E03D7E0F0105
:1017B000607420121DA30A1B7E27015E9D217A27DB
:1017C000015E7E1F01602D317A1F01607E37015E50
:1017D0004D33780E74117E704812254CE47AB301B3
:1017E0005D2274117E704002254C22CA797A0F0066
:1017F000FA1223CF7453900004F0E4900005F090A7
:101800000006F0900007F07E3400FA7E2400007A93
:101810001F01A87E1400087E0400017E1F00FA123A
:1018200002117D732E7400087D370B340A371215B0
:10183000867D37DA7922CAF87CFBBEF03B28037E2E
:10184000F03B744C900000F07445900001F074443B
:10185000900002F07428900003F09000047AEBF0FE
:101860000A3FCA397F107E1400057E040001122051
:10187000901BFD0A3F2E3400050A37121586DAF850
:1018800022CAF87CFBBEF03B28037EF03B744C90F0
:101890000000F07445900001F07444900002F07470
:1018A00040900003F09000047AEBF00A3FCA397FC1
:1018B000107E1400057E0400011220901BFD0A3FDB
:1018C0002E3400050A37121586DAF822CAF87EB3DC
:1018D000015270237EB30157701D7EB301567017FD
:1018E0007EB3015570117EF30154BEF08050087E26
:1018F0003701584D3368051225AF8017E47C7F12FD
:10190000254C4CFF68047403800274027AB3015CB6
:101910001225CBDAF822E46C7712254C74027AB3E4
:10192000015CE47AB3015D740E7E700112254C7483
:10193000117E704812254C740E7E700212254C7474
:10194000117E704812254C740E7E700112254C7465
:10195000147E709012254C740E6C7702254CCAF8D8
:101960006CFF80367E0F001C7A0F0182740AACBFB8
:1019700049F5002549E50023493500294925002777
:101980002F17BF0140127E1F0182593500295925AA
:1019900000274935002199340BF07E73005DBC7F30
:1019A00038C2DAF8227CA77C7B744C900000F0747B
:1019B00045900001F07444900002F07428900003F8
:1019C000F07402900004F07CB754077E440001607C
:1019D000053E441478FB7CB9900005F09000067A2F
:1019E000EBA07E3400070215867CA77C7B744C90AC
:1019F0000000F07445900001F07444900002F0740F
:101A000040900003F07402900004F07CB754077E0D
:101A100044000160053E441478FB7CB9900005F059
:101A20009000067AEBA07E34000702158675E90067
:101A3000A9D7BA75EA0043BA80759300759400750A
:101A4000910075920075950075960075B10075B29C
:101A50000075B30075B40075C90075CA0075CB0078
:101A600075CC0075E10075E20012138943AF802246
:101A70007C6B744C900000F07445900001F074444D
:101A8000900002F07428900003F07402900004F0BB
:101A9000E4900005F07CB65407C40354F87C6B4E08
:101AA00060807CB754074CB6900006F07E34000787
:101AB0000215867C6B744C900000F0744590000118
:101AC000F07444900002F07440900003F0740290AF
:101AD0000004F0E4900005F07CB65407C40354F809
:101AE0007C6B4E60807CB754074CB6900006F07E4D
:101AF000340007021586CA3B7CF57CE67CD77CCB9C
:101B00007C7EAC7F12100B12239D7405900004F0B4
:101B100074C8900005F09000067AEBC09000077A38
:101B2000EBD09000087AEBE09000097AEBF07E347D
:101B3000000A121586DA3B227C6B744C900000F090
:101B40007445900001F07444900002F074289000F5
:101B500003F07402900004F0E4900005F05E60076A
:101B60007CB6C40354F87C6B7CB754074CB6900029
:101B700006F07E3400070215867C6B744C900000E2
:101B8000F07445900001F07444900002F0744090AD
:101B90000003F07402900004F0E4900005F05E6031
:101BA000077CB6C40354F87C6B7CB754074CB690E2
:101BB0000006F07E340007021586CAF87CFB7A1F07
:101BC00001A41223CF744C900004F074019000051E
:101BD000F09000067AEBF0E4900007F07E0F01A48D
:101BE0007E3400087E240001791100021B1A007E59
:101BF00034000C121586DAF822CA3B7F307A730162
:101C0000B67AB301B51225BD0B347F031210AA12A8
:101C100023B67403900004F074A7900005F07EB31F
:101C200001B5900006F07EB301B6900007F07E3457
:101C30000008121586DA3B227584017E44041FE4F5
:101C40007A49B01B4478F97EF801B67E0400FF7E25
:101C500014261E0B0A405D44681A692000020B0E10
:101C60000B44800A7E0BB07A29B00B240B0C1B446A
:101C700078F280DF0225EE7EB3015CB4041D7EB3F2
:101C80000152B481167EB3015570107EB3015770B6
:101C90000A7E370158BE34000168030225AF7E3446
:101CA00014857E2400FF7A1F01607E3400017A379C
:101CB000015E022571CA3B7D727CCB12239D7406A6
:101CC000900004F074C6900005F07401900006F0D6
:101CD0009000077AEBC09000087AEB707E34000920
:101CE0007E2400011B1A707E34000B121586DA3B2D
:101CF00022CA3B7D727CCB12239D7406900004F0B7
:101D000074C6900005F07402900006F09000077A07
:101D1000EBC09000087AEB707E3400097E2400014D
:101D20001B1A707E34000B121586DA3B227E73007C
:101D30001B0A3709B3000812249F7EB3001B7E34B0
:101D4000000160053E341478FB7CB764FF12249FC9
:101D5000D2B5C2B57EB3001B047AB3001BBEB00877
:101D60004005E47AB3001B22CA3B7D727CCB122370
:101D70009D7406900004F074C6900005F0E4900095
:101D800006F09000077AEBC09000087AEB707E3482
:101D900000097E2400011B1A707E34000B12158688
:101DA000DA3B22CA3B7F30CAB80BFD7416122537C6
:101DB0007AFBB039BFFFFF800C29BFFFFE12253729
:101DC0007A3BB00B747EFBA07CBA147AFBB04CAAB1
:101DD00078E729BFFFFF9EF80003DA3B22CA3B7F6A
:101DE000301224B529B30005BEB00028251BB16808
:101DF0000E14680F14681024037812740A800A7491
:101E0000148006741E800274287AB30166E439B324
:101E10000005DA3B22CA3B1223CF7443900004F042
:101E2000E4900005F0900006F0900007F07E34008A
:101E300008CA397F107E1400087E04000112209029
:101E40001BFD7E340010121586DA3B22CA3B7F311F
:101E50001223CF7444900004F07401900005F0E464
:101E6000900006F0900007F07E3400087E24000108
:101E7000797100021B1A607E34000C121586DA3B61
:101E8000227A37017E7E34017F7E2400007E1B3063
:101E90007E3401807E2400007A1B307E34017E7EF9
:101EA0002400007E1B307E3401817E2400007A1BDA
:101EB000307E370180225392FE439101743F7E347D
:101EC000FEA87E24007E7A1BB075DE2F75BC80E4F0
:101ED0007A0BB039B0000139B0000239B0000339D3
:101EE000B0000439B0000522D2B3D2B2A2B2E433BA
:101EF0000A3B6D227A1F00BA74017AB3009C7AB350
:101F0000009DA2B3E4330A3B7A1F00BA74017AB38E
:101F100000B87AB300B9227CAB75BD0075BE00E590
:101F2000BC54F04CBAF5BCA9D6BC00000000A9A571
:101F3000BCE43368F9A9C5BCE5BD7C4B6C55E5BE76
:101F40000A3B4D3222CAF8740E7E700112254C7481
:101F5000111225377CFB30E50874117E7040122584
:101F60004C7CBF30E20774116C7712254CC202DA48
:101F7000F822CA797A0F01267E3401267E240000D9
:101F80007A1F01A87E1400007E0400017E1F012636
:101F90001202117D730A371215867D37DA7922CA4B
:101FA000F8740E7E700212254C74111225377CFBDA
:101FB00030E50874117E704012254C7CBF30E2077A
:101FC00074116C7712254CDAF822CA3BCA787F303C
:101FD000CAB8800B7EFBB07E3B700B7412254C2977
:101FE000AFFFFF7CBA1439BFFFFF4CAA78E61BFD98
:101FF000DA3B22CAF87CFB1223B67403900004F08B
:1020000074A3900005F07402900006F09000077A27
:10201000EBF07E340008121586DAF8227EB3015CFC
:10202000B4041B7EB30152B401147EB30155700E8B
:102030007EB3015770087E3701584D33680302257F
:10204000AF0225CB7EB3015CB404097EB30152BE5E
:10205000B0A168030225AF7E18018D7A1F01607E52
:102060003701587A37015E0225717EB3015CB404F2
:10207000097EB30152BEB02168030225AF7E18016C
:102080008D7A1F01607E3701587A37015E0225A1E3
:102090007F217F707F10800A7E2B307A1B300B549B
:1020A0000B34691FFFFD7D011B04790FFFFD4D11EE
:1020B00078E67F1722CA796D777E14001CAD172E43
:1020C00014009A6D007D3712090F0B74BE74000264
:1020D00040E712174FDA7922CAF87CFB12239D746D
:1020E00002900004F074C5900005F09000067AEBB1
:1020F000F07E340007121586DAF822CAF87CFB124B
:10210000239D7402900004F074C4900005F09000C8
:10211000067AEBF07E340007121586DAF822CAF848
:102120007CFB1223B67402900004F074A5900005A5
:10213000F09000067AEBF07E340007121586DAF88C
:1021400022801200000000000000000000000000DB
:1021500000000000007D231B344D2278E62212236C
:102160009D7402900004F074C7900005F074019013
:102170000006F07E34000702158612239D7402903B
:102180000004F074C0900005F07401900006F07E29
:102190003400070215861223B67402900004F0740E
:1021A000A3900005F07401900006F07E3400070251
:1021B00015861223B67402900004F074A4900005F2
:1021C000F07401900006F07E340007021586122399
:1021D0009D7402900004F074C2900005F0740190A8
:1021E0000006F07E3400070215861223B6740290B2
:1021F0000004F074A2900005F07402900006F07ED6
:1022000034000702158612239D7402900004F074B6
:10221000C1900005F07401900006F07E34000702C2
:1022200015861223B67402900004F074A090000585
:10223000F07401900006F07E340007021586122328
:10224000B67402900004F074A2900005F07401903E
:102250000006F07E3400070215861223B674029041
:102260000004F074A1900005F07401900006F07E67
:102270003400070215867EB3015324DF680A146810
:102280000A0BB1780902206A0220440224CB0225FD
:10229000AF12239D7402900004F074C0900005F00A
:1022A000E4900006F07E3400070215861223B6740F
:1022B00002900004F074A4900005F0E4900006F091
:1022C0007E34000702158612239D7402900004F0EC
:1022D00074C7900005F0E4900006F07E3400070219
:1022E00015861223B67402900004F074A0900005C5
:1022F000F0E4900006F07E3400070215861223B643
:102300007402900004F074A3900005F0E4900006BD
:10231000F07E34000702158612239D74029000049B
:10232000F074C2900005F0E4900006F07E340007DF
:1023300002158612239D7402900004F074C190006F
:1023400005F0E4900006F07E3400070215861223A3
:10235000B67402900004F074A1900005F0E49000BF
:1023600006F07E3400070215861223B67402900030
:1023700004F074A2900005F0E4900006F07E3400B2
:1023800007021586CAF80A5B2E540020121DA37C92
:10239000FB74146C7712254C7CBFDAF822744F90D2
:1023A0000000F0744C900001F07445900002F0744D
:1023B00080900003F022744C900000F07443900071
:1023C00001F07444900002F07480900003F02274D5
:1023D00037900000F07453900001F07445900002B3
:1023E000F07447900003F022A9C7AF740E7E70010D
:1023F00012254C74146C7712254CC200A9D7AF2259
:10240000CA797D7380077E3403E81221417D371B32
:10241000744D3378F1DA79227A1F00627A0F006EF8
:1024200074017AB3006C7E3701B37A370066227A82
:102430001F00767A0F008274017AB300807E370124
:10244000AF7A37007A227A1F008A7A0F00967401D9
:102450007AB300947E3701B17A37008E227E08006D
:10246000721211E27E1F00724D237803D38001C3E4
:102470009280227E0800861211E27E1F00864D2384
:102480007803D38001C39281227E08005E1211E29C
:102490007E1F005E4D237803D38001C392C8227C47
:1024A0006B6C773E60A2D792B4D2B2C2B20B70BE50
:1024B000700840EF22CA3B7F30E4121F17BE341071
:1024C0000050057F03120D75DA3B227EB3015CB428
:1024D00004097EB30152BEB02168030225AF022574
:1024E000CB1223B67401900004F074A6900005F09E
:1024F0007E34000602158612239D7401900004F0BC
:1025000074C3900005F07E340006021586121A2D61
:102510001225F61225D8D2AF7EB3015CB404F9C2FD
:10252000C0227CA77C7B0A5A2E540020121FCA743A
:10253000117E700102254C7CABE5FC20E7FB7CBAE8
:102540004480F5FCE5FC20E7FBE5EC227CA77C7BE6
:10255000E5FC20E7FB7CB7547FF5FC7AA1EC223F39
:10256000065B4F666D7D077F6F777C395E797140C2
:102570000074037AB3015D74117E704012254C0221
:1025800015F3438E0475D7D075D68A438E1043AFAA
:102590000422CA1B7E1F001C0B1C7A1F001CDA1BA6
:1025A0003274047AB3015D74117E704002254C745C
:1025B000057AB3015D74117E706002254C6D338025
:1025C000020B347E0BB00B1470F722E47AB3015D7A
:1025D00074117E704802254C121511122604122621
:1025E0000B0225821226127E1403E80208BC122573
:1025F0000D12195E80FB740A7AB30166227E08010F
:1026000094021DDD7E080194021EB674067AB300A2
:102610005D227E1F001C220225AF28302900000405
:10262000016A00FF26B50004016E000000000004EE
:102630000172000000000004001C000000000008FF
:1026400000080000000000000000003C0021245DA4
:1026500000000005000000002473000000050000D9
:1026600000002489000000050000000016FF0000A3
:102670000064000000001D2D0000000200000000AA
:1026800025FD0000000A000000000001015B0000C1
:10269000003430412D2D464545003330412D2D4627
:1026A0004545003230412D2D464545003130412D04
:0E26B0002D46454500405354434953502300E6
:00000001FF
