:1000000002120A7EB30010B404247EB30008B402C6
:100010001D7EB3000D60030200987EB3000B707864
:100020007EB3000A70727E37000E4D33680280681E
:100030007E63000C7C765E700F1B60682B2E6080E8
:1000400078567E2400017CB760053E241478FB7C42
:10005000656E60FF5E6300187A630018740E121AF2
:100060005974117E704080247E2400017CB76005A5
:100070003E241478FB7C656E60FF5E6300197A6332
:100080000019740E121A5974147E7080121A597461
:100090000E6C77121A598003021AAF021ACBCAF8F3
:1000A000740E7E7001121A597411121A447CFB30BE
:1000B000E50874117E7040121A597CBF30E2077453
:1000C000116C77121A59C202DAF822020E427F70BE
:1000D0007F517E6F00957E9400DD0201174005E49C
:1000E0007A7BB0227A7BB00B7C22540F2490D434DC
:1000F00040D430F30CBEB0414007BEB05B50022488
:10010000204CCC68021BC00B84D389944CCC680B68
:10011000742012010180F5CA3B6D889F337CAE7E4E
:100120005BB00B5C7007C37D38DA3B8994B42569FA
:10013000C2F37E5BB00B5CA5F824D0BEB00A501BA6
:100140007E500A20F60DAC5CA52D7CCB70034EF0E2
:100150000180DDAC5DA52D7CDB80D524CFBEB01A3F
:10016000A5E850055E00DFD2F39004ECA3E49360B1
:1001700011BCB078F77417934CAB30F6B34EF080E7
:1001800080AEA3E4936010BCB078F77416937C3B08
:100190007423937C2B89147CB0801374201201018A
:1001A00020F205BEC00250F31B6D29B600011201FA
:1001B0000102010C1B6E691600020B6A00BE0800EA
:1001C0000078087E0400FF7E141AF120F21E4CCC49
:1001D000681A7F10E47E1B804C8868070B1C04BCE7
:1001E000BD78F2C2F6CA0B1202EBDA0B7E0BB060DE
:1001F000C0CA0B120101DA0B0B0C4CDD68EE1BD0F0
:1002000078EA80ADD2F07E101080037E10085EB0D8
:100210005F800AD2F67E100A80057E100AC2F66D53
:10022000119F117E00201B6C7E6B7030F6021A3716
:1002300020F1051B6C7E6B6030F6041A261A243000
:10024000F0051B6D0B6A20A5EC3382F692F6500A7E
:100250007CEA9F229F217F127CAE4C44780F7C4524
:100260007C567C676C772E00F878EF80122F117C1B
:10027000B3337C3B9CB140047C3B0B70A5D8EE7C37
:10028000B230E005DAB8C44C3BCA380B207E0020FF
:100290007E3000BE18000078C1BE1008780730F428
:1002A00004C2F480B5CA287CB2BCBD38027CBD1241
:1002B00002EBDA28BC2D500A1BD0E4CA281200EA4F
:1002C00080F07CB213DAB84004C4CAB8C4CA28BEED
:1002D000F08040095CDD7805A5DA0260065EF07FFB
:1002E0001200EADA28A5DADA02010CBEF001680F82
:1002F00030F402240220F50620F70330F601042032
:10030000F229BCBC5025CAB87CBF13B0E67420509B
:100310001174307C8A5E80F0680812032B5EA00F97
:100320008003120101DAB8BCBC78DB30F40F743002
:10033000120101745830F302747812010130F6058D
:10034000742D020101742B20F5F8742020F7F3229C
:100350001B6C7E6BB010F1021B6C20F60B30E704B7
:10036000F404D2F27CCB800520E7057CDB0201306F
:100370005EF07F80F81B6E691600020B6A0030F099
:10038000076D221B0A200B0D1B0A8002011BE46C67
:1003900022BE3007500B7F1F2D312E34FFF77E39E0
:1003A000B0227CBF20E7A8742E4EF080020101121B
:1003B00004D5403D7CBD7003047CDB1205EC7C3D24
:1003C0004C3368101B307CBE20E40912038E70048D
:1003D0004C3378F07CBD7CD3BEA0FD481CBCAB5830
:1003E00018E49CBA2CB31801E47CDB0204761204F6
:1003F000D5406E7CBD041205EC7AFBA07CAE7CBDC2
:10040000A2F492F0C2F4400260010424051202EB4F
:100410007E30FF0B3012038ECA381200EA20F0043F
:100420004CDD68031203A2DA38BC3D78E6740E1284
:1004300000EA742B7EFBA030F707742D6EA0FF0B33
:10044000A07AFBA01201017EA00A7EFBB0847AFB99
:10045000A01200EA7EFBB01200EA9EF8000802013A
:100460000CD2F27ED0000201CB1204D540F37CBA4C
:100470002CBD041205EC7AFBA07CBA7CAE30E701FF
:10048000E40420F4044CDD6805D2F0C2F4042CBD71
:100490001202EB6C337EFBB0601B20E712147AFB78
:1004A000B012038ECA381200EADA380B3080E60444
:1004B0007AFBB01B3012038ECA381200EA4CDD689A
:1004C000071203A21BD080E19EF8000930F003124E
:1004D00003A202010C7CEA7CAF10F7037ED0067CFD
:1004E000FA1B6E693600020B6A200205342D2B20A0
:1004F0004C4248232E0053584F44494355502A4EEE
:10050000464547000420800102001040B4060B134A
:1005100013A01A04507569EEAF0102020202010233
:100520000203030403034E614E002B494E46002D87
:10053000494E46007D522D557CBE92E67CEB7CBA3E
:10054000601F0470287CB5C2E77E0400FF60067E51
:10055000140526D3227E14052F40047E14052AD3C9
:1005600022DA099F22CA2BCA2BC3CA09220A0A7E91
:10057000144D10AD109E083AF09E10267CB5C2E7CF
:100580007EA0567C9BA46E54FFFF2E54C511ACA9CF
:100590002D15E4A539CAB8CA1B20E70A120780DA6C
:1005A0001B1206CF800AF404120780DA1B12062FF2
:1005B000DAA87CB5337CB4334E50806C4424822F4F
:1005C000111478FBDA497407BE400A40099E400ABC
:1005D000CA0201140BA0CA486C442F117F012F11CD
:1005E0002F112F101478EFCA48CA49227F0F20E735
:1005F0003ABEB007400274070A0B2D109E14000982
:100600007E19B02EB0FB501F4C116817E47A19B058
:100610001B147E19B0047A19B0B40A0BE47A19B02D
:10062000A5D9ED0BA074017A19B0225EE0BF225D5E
:1006300022680D5D0078122D220B4068099F11225F
:100640002D000B0078F90207F41207B75C800B80CD
:100650006808248150072CB0500A0207FC2CB040D7
:10066000030207F97C8B5D1178267CB17CA5BE1056
:1006700080680A5D33780DA5BD80057F100207E60E
:100680006D0080307F017C5B7CB17CA5AD12802445
:100690005D337806A5BD80F080E1CA887D41AD4319
:1006A0007CB17CA5AD122D1450020B047C5BAD23F4
:1006B0002F01DA88A42D05BE008040060B80780447
:1006C00080982F007C437C507C617C720207D0BEF6
:1006D00024FFFF6806BE04FFFF78030207F4120739
:1006E000B75CB00468F57CB8A54868EF7CB87003C7
:1006F0009F1122A5B800030207FC2E008150079C21
:100700008038070207F99C8050ED0A51C2E74D512D
:1007100078030207E67E5400807E901A6C00800603
:100720001B9068142F11BF1040049F104CAB033076
:10073000E7EECAA86CAA80E8DA39DA587C4ABE50DB
:1007400080500A1B8068BC2F1150020B700207D02A
:100750003F8000004120000042C80000447A0000B1
:10076000461C400047C35000497424004B18968033
:100770004CBEBC205A0E1BCA6753C21C749DC5AE2A
:100780007C7B60065407681623231207A57CB754A8
:1007900038680A7F101207A212062F7F01227CB749
:1007A000543803241C6CAA2E5407507E4400FF0BBF
:1007B0002A0069120002222D0092D50E104E1080E0
:1007C0007D422D445002B2D54E50806C447CB822FC
:1007D0002C4450120B1C7E40005E507FBE1800005F
:1007E00078040B806816A2D57CB8137C4B7CB5923C
:1007F000E77C5B227E1CFFFF229F11227E24FF806C
:1008000020D5026C456D33227D51AD037D027D21E3
:10081000AD052D12AD352D2122CAF87EF300087CDE
:10082000BF5480B480167EB3000B70307EB3000AD4
:10083000702A7E37000EBE340002680302090D7C68
:10084000BF540F14681B14683B0BB1680302090DF9
:100850007EB3000D70067EB3000C601E02090D8091
:10086000197EB30010B4040F7EB3000D60030209BB
:100870000D7EB3000C600302090D7E340DBA7E2498
:1008800000FF80797EB30010B404067EB3000D60D3
:1008900002807A7E73000C7CA75EA00F1B7068320A
:1008A0002E708078687E2400017CBA60053E241496
:1008B00078FB7E7300186C665C754D33680A7E3475
:1008C0000DBC7E2400FF80357E340DBA7E2400FFEF
:1008D000802B7E2400017CBA60053E241478FB7EC8
:1008E0007300196C665C754D33680A7E340DBC7EEE
:1008F0002400FF80087E340DBA7E2400FF7A1F009A
:10090000147E3400027A37001280078000121AAF7A
:100910008003121A90DAF8227EB300085480BEB029
:100920008068030209E07EB3000B1BB1682F1468D6
:100930003E24E178030209CA242168030209E07E0B
:100940001F0081BE180000680280087E340D647E9E
:100950002400FF7A1F00147E340012807D7E340D47
:10096000917E2400FF7A1F00147E340029806B7E64
:10097000B3000A1468191468280BB178637E340D2B
:10098000607E2400FF7A1F00147E340004804B7EBA
:10099000340DBE7E2400FF7A1F00147E34000880D0
:1009A000397E1F007DBE180000680B7A1F00147E80
:1009B0001B701A3780247E340D467E2400FF7A1F78
:1009C00000147E34001A801280167E340D767E2448
:1009D00000FF7A1F00147E34001B7A370012800358
:1009E000021AAF7E37000EBE37001250047A37006D
:1009F00012021A907EB30010B404247EB30008B42F
:100A0000021D7EB3000D6003020A837EB3000B70EB
:100A1000727EB3000A706C7E37000E4D3368028020
:100A2000627E63000C7C765E700F1B6068282E600F
:100A30008078507E2400017CB760053E241478FB4A
:100A40007C654E6300187A630018740E121A59748C
:100A5000117E701080217E2400017CB760053E2449
:100A60001478FB7C654E6300197A630019740E12CA
:100A70001A5974147E7020121A59740E6C77121A57
:100A8000598003021AAF021ACBCA3B7A37008C7F17
:100A9000306D337A37008F807474387AB3008E7E6D
:100AA00037008CBE34003850047A73008E1217DF82
:100AB0007E73008E0A572E540003900004F074CF0A
:100AC000900005F07E17008F7E3400067E24000122
:100AD0001B1A107E73008E0A37CA397F137E1400EA
:100AE000087E0400011216EF1BFD1213F17E730045
:100AF0008E0A372D737E73008E0A272E37008F7A69
:100B000037008F7E37008C9D327A37008C7E37001D
:100B10008C4D337884DA3B22CA3B7A37001A7F3017
:100B20006D337A37001D807474387AB3001C7E37B9
:100B3000001ABE34003850047A73001C1217F87E75
:100B400073001C0A572E540003900004F074AF90F9
:100B50000005F07E17001D7E3400067E2400011B78
:100B60001A107E73001C0A37CA397F137E140008DE
:100B70007E0400011216EF1BFD1213F17E73001CA0
:100B80000A372D737E73001C0A272E37001D7A3713
:100B9000001D7E37001A9D327A37001A7E37001A00
:100BA0004D337884DA3B227EB30010BEB002682059
:100BB0007EB30008701A7EB3000B70147EB3000D74
:100BC000700E7EB3000C70087E37000E4D33680344
:100BD000021AAF7EB3000AB4014774047AB300105E
:100BE000E47AB300187AB30019740E7E7001121AF9
:100BF0005974127E7020121A5974107E7008121ADD
:100C000059740E7E7001121A5974126C77121A59A7
:100C100074137E7008121A59740E6C77121A598068
:100C20001074037AB3001074FF7AB300187AB3001B
:100C300019021ACBCAF8740E6C77121A5974111271
:100C40001A447CFB30E20F74117C7F5E70FB121A39
:100C500059E47AB300117CBF30E40A74117C7F4EF2
:100C60007080121A597EB3001124FD68461468483A
:100C70000BB278477CBF30E0427E08000874201237
:100C800013B77E37000E1215097A37000E7EB300B7
:100C900008546024E0680D24E0680E2440780F12A8
:100CA0000F8B80171215D18012121AEC800D121AB8
:100CB000AF8008120F248003120FE7DAF822CA3B34
:100CC0007A3700857F307E3400C87A37008A6D33EA
:100CD0007A37008880657E270085BE24004008059D
:100CE0007E704080027C757A730087A9C7AF740E4E
:100CF0007E7001121A597411121A4430E0107E37B6
:100D0000008A7D231B247A27008A4D3378E87F03ED
:100D10002E17008874407E7001121A2FD202A9D7B4
:100D2000AF7E7300870A277D322E3700887A37001E
:100D3000887E3700859D327A3700857E3700854D65
:100D4000337893DA3B221A03530054004300200007
:100D50004800490044002000440065006D006F0019
:100D6000040309041201000200000040BF3401FF27
:100D7000000101020001050C0901A101150025FF78
:100D8000750895400901B10209018102090191022A
:100D9000C009022900010100803209040000020399
:100DA000000000092101010001221B000705810349
:100DB0004000010705010340000100000100080395
:100DC000530054004300CAF8740E7E7001121A5981
:100DD0007414121A447CFB30E60874147E7080127E
:100DE0001A597CBF30E0587E1400407E0400017424
:100DF000011217C67E1400407E04000174211213F4
:100E0000B77E1F0079BE18000068327E1400407E55
:100E10000400011217B0702574146C77121A5975FA
:100E2000F40075DC00E47E34FE077E24007E7A1B2D
:100E3000B07E34000A12191A75C76080FED200DA3B
:100E4000F822CA7BCA6BCA5BCA4BCAD8CA79CA2BFA
:100E5000CA1BCA0BC0D0C083C0827406121A447C5D
:100E6000FB7402121A447CDB7404121A447CEB7C7F
:100E7000BF30E103121AF07CBF30E20312142A7C67
:100E8000BD30E003120C347CBD30E10312009E7CC7
:100E9000BE30E103120DC67CBF30E003121AEFD062
:100EA00082D083D0D0DA0BDA1BDA2BDA79DAD8DA0F
:100EB0004BDA5BDA6BDA7B3253B2FC43B1037480FA
:100EC0007E34FE077E24007E7A1BB07E34FE077ED1
:100ED00024007E7E1BB030E0F275DC0075F490E4F7
:100EE0006C77121A5974017E7009121A5974077EB0
:100EF000703F121A5974097E703F121A59740B7E92
:100F00007007121A5974017E7001121A5974027A0C
:100F1000B30010E47AB300117AB300187AB3001961
:100F2000A9D7AF22CAF8740E6C77121A597411122D
:100F30001A4420E1537E370012BE34004028057E5B
:100F4000F04080027CF77E0F00147C7F7420121624
:100F5000530A2F7E3700129D327A3700120A157E0F
:100F60001F00142D317A1F00147E3700124D337884
:100F70000F74117E700A121A59E47AB300118008B6
:100F800074117E7002121A59DAF8227EB30009BE7B
:100F9000B00D50507EA003A4900F9C73020FC302AB
:100FA0000FC6020FE4020FC9020FE4020FCC020FBA
:100FB000CF020FD2020FD5020FD8020FDB020FDED5
:100FC000020FE10208190200030209F402113202C1
:100FD0000918021AE6021091020BA7021249021622
:100FE0007C021AE9021AAF740E6C77121A59741146
:100FF000121A4430E0467E0F001474201213B70A10
:101000001B7E2700129D217A2700127E1F00142DBF
:10101000317A1F00147E3700124D33781774117E19
:101020007048121A59E47AB300117EB30009B4096A
:101030000BD2012274117E7040021A592275E90008
:10104000A9D7BA75EA007E34FE997E24007E7E1B05
:10105000B044047A1BB07593007594FF75910075C8
:10106000920075950075960075B10075B20075B364
:101070000075B40075C90075CA0075CB0075CC0049
:1010800075E10075E200120EB8A9D7AFD2AFC2C0A9
:10109000227EB30008B480227EB3000B701C7EB3A6
:1010A000000A70167EB3000D70107EB3000C700A3B
:1010B0007E37000EBE3400016803021AAF7EB30013
:1010C00010B4040A7E340DBC7E2400FF80087E34F8
:1010D0000DBA7E2400FF7A1F00147E3400017A3797
:1010E0000012021A90CA3B7F707CF57CE67CD77CAC
:1010F000CBCA7B0A366D222F110A1F6D0012080819
:10110000DA0B120B181217F87405900004F074A88B
:10111000900005F09000067AEBC09000077AEBD0C3
:101120009000087AEBE09000097AEBF01213F1DA04
:101130003B22CAF87EB3000870237EB3000D701DF9
:101140007EB3000C70177EB3000B70117EF3000AA3
:10115000BEF08050087E37000E4D336805121AAF7E
:101160008017E47C7F121A594CFF680474038002D4
:1011700074027AB30010121ACBDAF822C29074FA11
:10118000121A19D290C29174FA121A19D291C292FB
:1011900074FA121A19D292C29374FA121A19D293CB
:1011A000C29474FA121A19D294C29574FA121A19C6
:1011B000D295C29674FA121A19D296C29774FA127C
:1011C0001A19D29722CA797A0F004912181174534A
:1011D000900004F0E4900005F0900006F090000705
:1011E000F07E3400497E2400007A1F00957E1400B2
:1011F000087E0400017E1F00491200CE7D732E740C
:1012000000081213F17D37DA79227584017E4404D7
:101210001FE47A49B01B4478F97EF8009E7E0400F2
:10122000FF7E141AF50B0A405D44681A692000021B
:101230000B0E0B44800A7E0BB07A29B00B240B0CEA
:101240001B4478F280DF021AD87EB30010B4041D6C
:101250007EB30008B481167EB3000B70107EB3001D
:101260000D700A7E37000EBE3400016803021AAF0B
:101270007E340DBA7E2400FF7A1F00147E340001F4
:101280007A370012021A90CA3B7CF57CE67CD77C48
:10129000CB7C7EAC7F120A891217DF7405900004A4
:1012A000F074C8900005F09000067AEBC09000073B
:1012B0007AEBD09000087AEBE09000097AEBF0121C
:1012C00013F1DA3B227CABBEA03B28037EA03B742B
:1012D0004C900000F07445900001F07444900002BE
:1012E000F07428900003F09000047AEBA00A3ACA48
:1012F000397F107E1400057E0400011216EF1BFDDD
:101300000213F17CABBEA03B28037EA03B744C9043
:101310000000F07445900001F07444900002F074F5
:1013200040900003F09000047AEBA00A3ACA397F9B
:10133000107E1400057E0400011216EF1BFD02133F
:10134000F1CAF87CFB7A1F0091121811744C9000BE
:1013500004F07401900005F09000067AEBF0E49040
:101360000007F07E0F00917E3400087E2400017992
:101370001100021B1A001213F1DAF822CA3B7F3067
:101380007A73009E7AB3009D121ABD0B347F03124C
:101390000B181217F87403900004F074A79000055E
:1013A000F07EB3009D900006F07EB3009E90000793
:1013B000F01213F1DA3B22CA3B7F30CAB80BFD743E
:1013C00016121A447AFBB039BFFFFF800C29BFFF09
:1013D000FE121A447A3BB00B747EFBA07CBA147ADE
:1013E000FBB04CAA78E729BFFFFF9EF80003DA3B69
:1013F00022CA797E7400C8A9C7AF740E7E7001122C
:101400001A597411121A4430E0087D371B744D3399
:1014100078F07E1400007E04000174407E7001129A
:101420001A2FD202A9D7AFDA7922E46C77121A59AF
:1014300074027AB30010E47AB30011740E7E700166
:10144000121A5974117E7048121A59740E7E700166
:10145000121A5974147E7090121A59740E6C770215
:101460001A59CA3B7D727CCB1217DF7406900004B8
:10147000F074C6900005F07401900006F09000072B
:101480007AEBC09000087AEB707E3400097E24006D
:10149000011B1A701213F1DA3B22CA3B7D727CCB1E
:1014A0001217DF7406900004F074C6900005F07403
:1014B00002900006F09000077AEBC09000087AEBEB
:1014C000707E3400097E2400011B1A701213F1DAB9
:1014D0003B22CA3B7D727CCB1217DF74069000045E
:1014E000F074C6900005F0E4900006F09000077AD2
:1014F000EBC09000087AEB707E3400097E24000176
:101500001B1A701213F1DA3B227A3700997E3400ED
:101510009A7E2400007E1B307E34009B7E240000D7
:101520007A1B307E3400997E2400007E1B307E348E
:10153000009C7E2400007A1B307E37009B22CA3B31
:101540001218117443900004F0E4900005F090002C
:1015500006F0900007F07E340008CA397F107E1430
:1015600000087E0400011216EF1BFD1213F1DA3B96
:1015700022CA3B7F311218117444900004F07401A8
:10158000900005F0E4900006F0900007F07E340033
:10159000087E240001797100021B1A601213F1DA2F
:1015A0003B22CA797A0F00757E3400757E240000D4
:1015B0007A1F00957E1400007E0400017E1F0075D6
:1015C0001200CE7D732E7400081213F17D37DA7984
:1015D000227EB300091BB1681714681A24FA680D3B
:1015E000146810146813240A78120215FF021629D1
:1015F0000216A4021771021AE0021AE3021AAF7E61
:10160000B30010B404097EB30008BEB0A1680302A1
:101610001AAF7E3400807E2400017A1F00147E37CA
:10162000000E7A370012021A907EB30010B404093B
:101630007EB30008BEB0216803021AAF7E3400807A
:101640007E2400017A1F00147E37000E7A370012C4
:10165000021AA1CA3BCA787F30CAB8800B7EFBB0A1
:101660007E3B700B74121A5929AFFFFF7CBA1439F4
:10167000BFFFFF4CAA78E61BFDDA3B227EB30010C9
:10168000B4041B7EB30008B401147EB3000B700ECB
:101690007EB3000D70087E37000E4D336803021ACA
:1016A000AF021ACB7EB30010B404097EB30008BEAB
:1016B000B0A16803021AAF7E18001F7A1F00147EC3
:1016C0003400017A370012021A90CAF87CFB121714
:1016D000F87403900004F074A3900005F074029075
:1016E0000006F09000077AEBF01213F1DAF8227F8F
:1016F000217F707F10800A7E2B307A1B300B540BB9
:1017000034691FFFFD7D011B04790FFFFD4D11782A
:10171000E67F1722CAF87CFB1217DF7402900004E0
:10172000F074C5900005F09000067AEBF01213F10A
:10173000DAF822CAF87CFB1217DF7402900004F07A
:1017400074C4900005F09000067AEBF01213F1DA01
:10175000F822CAF87CFB1217F87402900004F074A7
:10176000A5900005F09000067AEBF01213F1DAF87C
:10177000227EB30010B404097EB30008BEB0216815
:1017800003021AAF7E73000B7A73001F021ACB801C
:101790001200000000000000000000000000000037
:1017A0000000007D231B344D2278E6220B0C0B1C1D
:1017B0007E0BB06005BE1BB068F29E1BB060067465
:1017C000FF4002740122CAF80A5B2E540020121353
:1017D000B77CFB74146C77121A597CBFDAF8227448
:1017E0004F900000F0744C900001F074459000029E
:1017F000F07480900003F022744C900000F0744369
:10180000900001F07444900002F07480900003F0A6
:10181000227437900000F07453900001F0744590EA
:101820000002F07447900003F022A9C7AF740E7E47
:101830007001121A5974146C77121A59C200A9D780
:10184000AF221217DF7402900004F074C7900005F5
:10185000F07401900006F00213F11217DF74029089
:101860000004F074C0900005F07401900006F002CE
:1018700013F11217F87402900004F074A39000059D
:10188000F07401900006F00213F11217F874029040
:101890000004F074A4900005F07401900006F002BA
:1018A00013F11217DF7402900004F074C290000567
:1018B000F07401900006F00213F11217F874029010
:1018C0000004F074A2900005F07402900006F0028B
:1018D00013F11217DF7402900004F074C190000538
:1018E000F07401900006F00213F11217F8740290E0
:1018F0000004F074A0900005F07401900006F0025E
:1019000013F11217F87402900004F074A29000050D
:10191000F07401900006F00213F1CA797D7380071C
:101920007E3403E812178F7D371B744D3378F1DA5C
:1019300079221217F87402900004F074A190000547
:10194000F07401900006F00213F11217DF74029098
:101950000004F074C0900005F0E4900006F002135B
:10196000F11217F87402900004F074A4900005F0CE
:10197000E4900006F00213F11217DF7402900004E5
:10198000F074C7900005F0E4900006F00213F11225
:1019900017F87402900004F074A0900005F0E49031
:1019A0000006F00213F11217F87402900004F074AC
:1019B000A3900005F0E4900006F00213F11217DF87
:1019C0007402900004F074C2900005F0E4900006E8
:1019D000F00213F11217DF7402900004F074C1904A
:1019E0000005F0E4900006F00213F11217F87402FB
:1019F000900004F074A1900005F0E4900006F0025D
:101A000013F11217F87402900004F074A29000050C
:101A1000F0E4900006F00213F17CAB7E441A0A7DDC
:101A2000341B347D4378F87CBA147CAB78ED227C8F
:101A3000A77C7B0A5A2E54002012165374117E7014
:101A400001021A597CABE5FC20E7FB7CBA4480F527
:101A5000FCE5FC20E7FBE5EC227CA77C7BE5FC2099
:101A6000E7FB7CB7547FF5FC7AA1EC221217F874DF
:101A700001900004F074A6900005F00213F1121713
:101A8000DF7401900004F074C3900005F00213F1BC
:101A900074037AB3001174117E7040121A59020F48
:101AA0002474047AB3001174117E7040021A5974C0
:101AB000057AB3001174117E7060021A596D33807B
:101AC000020B347E0BB00B1470F722E47AB30011D2
:101AD00074117E7048021A5912103D12117C80FB5D
:101AE000021AAF021AAF021AAF021AAF021AAF22DD
:101AF00022283029000004007900FF1B0F00040099
:101B00007D00000000000400810000000000004093
:081B10005354434953502300D4
:00000001FF
