:10000000021B4B7EB30153BEB00D50507EA003A423
:100010009000147302003B02003E02005C020041AB
:1000200002005C02004402004702004A02004D0246
:100030000050020053020056020059020BAD020E9E
:1000400019021095021822020EB802005F02160073
:10005000020D74021B8A021E970200C702241002BE
:100060002410220223F37A1F01727E3401757E244C
:1000700000007E1B307E3401767E2400007A1B3027
:100080007E3401747E2400007E1B307E3401777E36
:100090002400007A1B307E3401737E2400007E1B16
:1000A000307E3401787E2400007A1B307E34017269
:1000B0007E2400007E1B307E3401797E2400007A8D
:1000C0001B307E1F017622022410220213DD5D22E6
:1000D000680D5D0078122D220B4068099F11222DBA
:1000E000000B0078F902026A12022D5C800B806816
:1000F00008248150072CB0500A0202722CB0400331
:1001000002026F7C8B5D1178267CB17CA5BE1080CD
:10011000680A5D33780DA5BD80057F1002025C6D15
:100120000080307F017C5B7CB17CA5AD1280245DBA
:10013000337806A5BD80F080E1CA887D41AD437C5F
:10014000B17CA5AD122D1450020B047C5BAD232FA6
:1001500001DA88A42D05BE008040060B807804805B
:10016000982F007C437C507C617C7202024674F8BC
:100170006CAA6E40806E0080BEB0FF68277C837CD6
:10018000975C3B5C7BBF10682AF4400D7C382D15D2
:10019000F45C3B500F0B04800B7C792D35F45C7BB9
:1001A00050020B24BF10680B7CB020E7067CB42003
:1001B000E701B3227EA020800C7EA01080057EA0E7
:1001C000086C556D333392D5500A6E34FFFF6E24A0
:1001D000FFFF0B1CA5EC3340062F11D5F0F6227C57
:1001E000BA247EA2D5137C767C65A5CC92E77C5B95
:1001F000227F707F517EC400007ED401527E940223
:10020000040202AB4005E47A7BB0227A7BB00B7C1F
:10021000227F707F517E6F019E7E9402200202AB8E
:100220004005E47A7BB0227A7BB00B7C222D0092D1
:10023000D50E104E10807D422D445002B2D54E5046
:10024000806C447CB8222C4450120B1C7E40005E13
:10025000507FBE18000078040B806816A2D57CB8C9
:10026000137C4B7CB592E77C5B227E1CFFFF229FB8
:1002700011227E24FF8020D5026C456D3322540F5D
:100280002490D43440D430F30CBEB0414007BEB00B
:100290005B500224204CCC68021BC00B84D3899491
:1002A0004CCC680B742012029580F5CA3B6D889F78
:1002B000337CAE7E5BB00B5C7007C37D38DA3B8964
:1002C00094B42569C2F37E5BB00B5CA5F824D0BE64
:1002D000B00A501B7E500A20F60DAC5CA52D7CCBDD
:1002E00070034EF00180DDAC5DA52D7CDB80D52454
:1002F000CFBEB01AA5E850055E00DFD2F3900680AD
:10030000A3E4936011BCB078F77417934CAB30F64C
:10031000B34EF08080AEA3E4936010BCB078F77465
:1003200016937C3B7423937C2B89147CB0801374CC
:100330002012029520F205BEC00250F31B6D29B6B3
:1003400000011202950202A01B6E691600020B6AE0
:1003500000BE08000078087E0400FF7E14245A20A6
:10036000F21E4CCC681A7F10E47E1B804C88680714
:100370000B1C04BCBD78F2C2F6CA0B12047FDA0B68
:100380007E0BB060C0CA0B120295DA0B0B0C4CDD71
:1003900068EE1BD078EA80ADD2F07E101080037E2C
:1003A00010085EB05F800AD2F67E100A80057E10CB
:1003B0000AC2F66D119F117E00201B6C7E6B70309F
:1003C000F6021A3720F1051B6C7E6B6030F6041ABA
:1003D000261A2430F0051B6D0B6A20A5EC3382F63B
:1003E00092F6500A7CEA9F229F217F127CAE4C44F9
:1003F000780F7C457C567C676C772E00F878EF8010
:10040000122F117CB3337C3B9CB140047C3B0B70BE
:10041000A5D8EE7CB230E005DAB8C44C3BCA380B44
:10042000207E00207E3000BE18000078C1BE10087B
:10043000780730F404C2F480B5CA287CB2BCBD3859
:10044000027CBD12047FDA28BC2D500A1BD0E4CAFE
:100450002812027E80F07CB213DAB84004C4CAB815
:10046000C4CA28BEF08040095CDD7805A5DA0260C8
:10047000065EF07F12027EDA28A5DADA0202A0BE5A
:10048000F001680F30F402240220F50620F7033053
:10049000F6010420F229BCBC5025CAB87CBF13B0B9
:1004A000E67420501174307C8A5E80F06808120473
:1004B000BF5EA00F8003120295DAB8BCBC78DB30B7
:1004C000F40F7430120295745830F30274781202EB
:1004D0009530F605742D020295742B20F5F87420E2
:1004E00020F7F3221B6C7E6BB010F1021B6C20F620
:1004F0000B30E704F404D2F27CCB800520E7057CC6
:10050000DB0202C45EF07F80F81B6E691600020BEE
:100510006A0030F0076D221B0A200B0D1B0A8002B7
:1005200002AFE46C22BE3007500B7F1F2D312E34FA
:10053000FFF77E39B0227CBF20E7A8742E4EF080F2
:10054000020295120669403D7CBD7003047CDB12FB
:1005500007807C3D4C3368101B307CBE20E40912C0
:10056000052270044C3378F07CBD7CD3BEA0FD48DE
:100570001CBCAB5818E49CBA2CB31801E47CDB0219
:10058000060A120669406E7CBD041207807AFBA041
:100590007CAE7CBDA2F492F0C2F44002600104245F
:1005A0000512047F7E30FF0B30120522CA3812027A
:1005B0007E20F0044CDD6803120536DA38BC3D7845
:1005C000E6740E12027E742B7EFBA030F707742DAA
:1005D0006EA0FF0BA07AFBA01202957EA00A7EFB04
:1005E000B0847AFBA012027E7EFBB012027E9EF8DF
:1005F00000080202A0D2F27ED00002035F12066958
:1006000040F37CBA2CBD041207807AFBA07CBA7C34
:10061000AE30E701E40420F4044CDD6805D2F0C2FA
:10062000F4042CBD12047F6C337EFBB0601B20E70A
:1006300012147AFBB0120522CA3812027EDA380B85
:100640003080E6047AFBB01B30120522CA38120251
:100650007E4CDD68071205361BD080E19EF800094C
:1006600030F0031205360202A07CEA7CAF10F703DB
:100670007ED0067CFA1B6E693600020B6A200206E9
:10068000C82D2B204C4248232E0053584F44494339
:1006900055502A4E46454700042080010200104074
:1006A000489A9FA7A734AE98E409FD824303030349
:1006B000030303030304050505054E614E002B49A2
:1006C0004E46002D494E46007D522D557CBE92E689
:1006D0007CEB7CBA601F0470287CB5C2E77E040006
:1006E000FF60067E1406BAD3227E1406C340047E41
:1006F0001406BED322DA099F22CA2BCA2BC3CA0909
:10070000220A0A7E144D10AD109E083AF09E102663
:100710007CB5C2E77EA0567C9BA46E54FFFF2E548E
:10072000C511ACA92D15E4A539CAB8CA1B20E70A22
:10073000120874DA1B1207C3800AF404120874DA70
:100740001B1200CEDAA87CB5337CB4334E50806CDB
:100750004424822F111478FBDA497407BE400A4002
:10076000099E400ACA0201140BA0CA486C442F110A
:100770007F012F112F112F101478EFCA48CA492278
:100780007F0F20E73ABEB007400274070A0B2D1016
:100790009E1400097E19B02EB0FB501F4C11681733
:1007A000E47A19B01B147E19B0047A19B0B40A0B9C
:1007B000E47A19B0A5D9ED0BA074017A19B0225EC4
:1007C000E0BF22BE24FFFF6806BE04FFFF780302DD
:1007D000026A12022D5CB00468F57CB8A54868EF87
:1007E0007CB870039F1122A5B800030202722E008C
:1007F0008150079C80380702026F9C8050ED0A519F
:10080000C2E74D51780302025C7E5400807E901A4C
:100810006C0080061B9068142F11BF1040049F10BD
:100820004CAB0330E7EECAA86CAA80E8DA39DA5894
:100830007C4ABE5080500A1B8068BC2F1150020BAE
:10084000700202463F8000004120000042C80000C4
:10085000447A0000461C400047C3500049742400FD
:100860004B1896804CBEBC205A0E1BCA6753C21C44
:10087000749DC5AE7C7B600654076816232312085E
:10088000997CB75438680A7F101208961200CE7F00
:1008900001227CB7543803241C6CAA2E5408447ED1
:1008A0004400FF0B2A0069120002227D51AD037D36
:1008B000027D21AD052D12AD352D21226D00741064
:1008C0004D00780B4D2278278D317D126D22227DCF
:1008D000437D326D222F112D445002A50FBF1040D1
:1008E000049F100B901478ED7F016D227D34227DE2
:1008F000417D138D247D022F004004BD0440049DE2
:10090000040B141478F17D237D317D106D00227F5E
:10091000701B3468130B347820A2B2E43378057E60
:10092000700180116C77800DA2B3E43378057E707E
:100930000180026C773977000229B7000260030258
:1009400009C829B7000360257E1F001C7937000AFB
:10095000792700087E1F001C7937001279270010C4
:100960009F117937001679270014020A226957006F
:100970000A694700087E1F001C7F019F02BE081302
:10098000882803020A2269570012694700107F0174
:100990009F02BE0800C83803020A22793700127984
:1009A0002700107E3400031B7A30BE3400037872B7
:1009B0007F072E140014693000020B0A200B1C79EB
:1009C0003000021B0A20805A29B7000370547E1F92
:1009D000001C7937000E7927000C6917000A690797
:1009E00000086937000E6927000C9F10BE18138895
:1009F00028137E1400041B7A109F007917001A79BF
:100A0000070018801DBE1803E828067E3400028007
:100A1000047E3400011B7A309F117937001A792740
:100A2000001829770002397700030B7A30BE3400B2
:100A3000026806BE34000178337F072E140018695F
:100A40003000020B0A200B1C793000021B0A2069BF
:100A500037001A69270018BE18012C400F6D331B90
:100A60007A309F117937001A79270018226C666C4A
:100A7000550A1509B1001024D3BEB0384003020B4B
:100A80008A7EA003A4900A8973020B81020B8A025A
:100A90000B8A020B31020B36020B3B020B40020B9E
:100AA00045020B4A020B4F020B54020B59020B5E1C
:100AB000020B8A020B8A020B8A020B8A020B8A0241
:100AC0000B8A020B8A020B63020B8A020B6D020B6C
:100AD0008A020B77020B7C020B8A020B8A020B8ABA
:100AE000020B8A020B8A020B8A020B8A020B8A0211
:100AF0000B8A020B8A020B8A020B8A020B8A020BF8
:100B00008A020B8A020B8A020B8A020B8A020B8A68
:100B1000020B8A020B8A020B8A020B8A020B8A02E0
:100B20000B8A020B8A020B8A020B68020B8A020BE9
:100B3000729023C1804E9023C280499023C3804489
:100B40009023C4803F9023C5803A9023C68035907F
:100B500023C780309023C8802B9023C98026902300
:100B6000CA80219023CB801C9023CC80179023CD6A
:100B700080129023CE800D9023CF80089023D080C8
:100B8000039023D1E4937C7B80026C770A1509B132
:100B90000011B42E054E70800B500A161971000812
:100BA0000B600B50BE60085003020A7122CAF87E27
:100BB000F301527CBF5480B480167EB3015570306F
:100BC0007EB30154702A7E370158BE340002680398
:100BD000020CA57CBF540F14681B14683B0BB16852
:100BE00003020CA57EB3015770067EB30156601E4A
:100BF000020CA580197EB3015CB4040F7EB30157CB
:100C00006003020CA57EB301566003020CA57E347E
:100C100013D17E2400FF807D7EB3015CB404067E88
:100C2000B301576002807E7E7301567CA75EA00FE1
:100C30001B7068362E707F68040B7078687E240005
:100C4000017CBA60053E241478FB7E7301646C66F7
:100C50005C754D33680A7E3413D37E2400FF8035E3
:100C60007E3413D17E2400FF802B7E2400017CBAC9
:100C700060053E241478FB7E7301656C665C754DDF
:100C800033680A7E3413D37E2400FF80087E341339
:100C9000D17E2400FF7A1F01607E3400027A370182
:100CA0005E8007800012241080031223D2DAF8221B
:100CB000CA79740E7E700112239C74141223877CEF
:100CC000FB30E60874147E708012239C7CBF20E009
:100CD00003020D717E1400407E0400017421121C79
:100CE000B67AB3015A7E1F01664D237803020D6F59
:100CF0006CFF80737EB3015B1A3B7E0F01662D3162
:100D00007D207E1BA00A4F2E4400407A91827A817A
:100D1000837EEBE0BCEA7839047AB3015B7E730131
:100D20005B1A372D317D207E1BB0703974146C77BF
:100D300012239C75F40075DC00E47E34FE077E24EB
:100D4000007E7A1BB07E34000A12227B75C7608059
:100D5000FE7E1F01667E1B70BCE778047401800173
:100D6000E47AB3015B0BF07E73015ABC7F3885D205
:100D700000DA79227EB3015CBEB00268207EB30146
:100D800052701A7EB3015570147EB30157700E7EF7
:100D9000B3015670087E3701584D336803022410A2
:100DA0007EB30154B4015F74047AB3015CE47AB396
:100DB00001647AB30165740E7E700112239C741273
:100DC0007E702012239C74107E700812239C740E77
:100DD0007E700212239C74127E702012239C741069
:100DE0007E700812239C740E7E700112239C741274
:100DF0006C7712239C74137E700812239C740E6C03
:100E00007712239C801074037AB3015C74FF7AB369
:100E100001647AB3016502242C7EB3015CB404241E
:100E20007EB30152B4021D7EB301576003020EB2BD
:100E30007EB30155707C7EB3015470767E370158C5
:100E40004D336802806C7E6301567C765E700F1BAA
:100E500060682F2E607F68040B6078567E24000146
:100E60007CB760053E241478FB7C656E60FF5E6392
:100E700001647A630164740E12239C74117E7040C5
:100E800080247E2400017CB760053E241478FB7C1E
:100E9000656E60FF5E6301657A630165740E1223FF
:100EA0009C74147E708012239C740E6C7712239CA9
:100EB000800302241002242C7EB301525480BEB061
:100EC000806803020F437EB301551BB16819146893
:100ED000280BB1786E7E34137C7E2400FF7A1F01CC
:100EE000607E34001280547E34138E7E2400FF7A9C
:100EF0001F01607E34004380427EB30154146819A0
:100F00001468280BB1783C7E3413787E2400FF7A75
:100F10001F01607E34000480227E3413D57E2400BD
:100F2000FF7A1F01607E34000880107E34135A7EE1
:100F30002400FF7A1F01607E34001E7A37015E8034
:100F40000580000224107E370158BE37015E500430
:100F50007A37015E0223D2CA3B7A3701957F306D22
:100F6000337A370198020FE874387AB301977E37E5
:100F70000195BE34003850047A7301971222187E0E
:100F80007301970A572E540003900004F074CF9019
:100F90000005F07E1701987E3400067E2400011BB8
:100FA0001A107E7301970A37CA397F137E1400081E
:100FB0007E040001121F0B1BFD7E7301970A372E62
:100FC0003400080A371214D27E7301970A372D7342
:100FD0007E7301970A272E3701987A3701987E375A
:100FE00001959D327A3701957E3701954D3368031F
:100FF000020F68DA3B22CA3B7A3701907F306D33AB
:101000007A37019302108774387AB301927E3701E0
:1010100090BE34003850047A7301921222317E73EC
:1010200001920A572E540003900004F074AF900010
:1010300005F07E1701937E3400067E2400011B1A02
:10104000107E7301920A37CA397F137E1400087E1E
:10105000040001121F0B1BFD7E7301920A372E3410
:1010600000080A371214D27E7301920A372D737E5C
:101070007301920A272E3701937A3701937E370145
:10108000909D327A3701907E3701904D336803028C
:101090001007DA3B227EB3015CB404247EB3015214
:1010A000B4021D7EB3015760030211287EB30155BF
:1010B00070767EB3015470707E3701584D336802EC
:1010C00080667E6301567C765E700F1B60682C2EF6
:1010D000607F68040B6078507E2400017CB7600557
:1010E0003E241478FB7C654E6301647A630164746A
:1010F0000E12239C74117E701080217E2400017CCE
:10110000B760053E241478FB7C654E6301657A6305
:101110000165740E12239C74147E702012239C743B
:101120000E6C7712239C800302241002242C7F7003
:1011300029B7000EB40113E439B7000E6D337937C7
:10114000000A7937000C39B7000F692700086937A2
:10115000000CBD327807740139B7000F227F072ECB
:1011600014000A0B0A300B341B0A3069D7000669D9
:10117000C700047F16E41201B46917001269070062
:10118000101200CE7F0169B7000A7D2BE41201B96D
:1011900012016E38067E180001800A7D3B6D22BF69
:1011A00016500A9F11793700021B7A20226D33797D
:1011B00037000A7F072E14000C0B0A300B341B0A71
:1011C0003022CAF8740E6C7712239C741112238794
:1011D0007CFB30E20F74117C7F5E70FB12239CE479
:1011E0007AB3015D7CBF30E40A74117C7F4E70805D
:1011F00012239C7EB3015D24FD68461468480BB23F
:1012000078477CBF30E0427E0801527420121CB641
:101210007E370158121D5C7A3701587EB301525453
:101220006024E0680D24E0680E2440780F1200036B
:1012300080171220F18012122457800D1224108082
:101240000812153F80031216F4DAF822CA3B7A37E7
:1012500001827F307E3400C87A370187A9C7AF7416
:101260000E7E700112239C6D337A3701857E270133
:1012700082BE24004008057E704080027C757A732F
:101280000184741112238730E0107E3701877D239B
:101290001B247A2701874D3378E87F032E170185B9
:1012A0007EB301847E70011223727E7301840A274B
:1012B0007D322E3701857A3701857E3701829D3256
:1012C0007A3701827E730184BE704050A0D202A999
:1012D000D7AFDA3B2253B2FC43B10374807E34FEB5
:1012E000077E24007E7A1BB07E34FE077E24007EBB
:1012F0007E1BB030E0F275DC0075F490E46C771280
:10130000239C74017E700812239C74077E703F1228
:10131000239C74097E703F12239C740B7E7007120D
:10132000239C74016C7712239C74027AB3015CE4F1
:101330007AB3015D7AB301647AB301657E3401004A
:101340007E2400C27A1F01897AB3018D7AB3018E9F
:1013500074087AB3018FA9D7AF221E03530054003B
:101360004300200055005300420020005300650058
:101370007200690061006C0004030904120100029C
:1013800002000040BF3402FF000101020001090217
:101390004300020100803209040000010202010042
:1013A0000524001001052401000104240202052483
:1013B000060001070582034000FF09040100020A3C
:1013C00000000007058102400000070501024000FF
:1013D00000000001000803530054004300CA7BCA08
:1013E0006BCA5BCA4BCA3BCA2BCA1BCA0BC0D0C054
:1013F00083C0827EF1FC74061223877CEB74021298
:1014000023877CCB74041223877CDB7CBE30E10312
:101410001200CA7CBE30E20312186C7CBC30E003C0
:101420001211C27CBC30E103121DC07CBC30E2034F
:10143000121E1A7CBD30E103120CB07CBE30E003FA
:101440001200627AF1FCD082D083D0D0DA0BDA1BA2
:10145000DA2BDA3BDA4BDA5BDA6BDA7B329F117A22
:101460001F00727E1800287A1F00767E34999A7EBB
:10147000243E997A1F008274017AB300807E340082
:10148000057A37007A9F117A1F00867E1800287A25
:101490001F008A7E34CCCD7E243F4C7A1F00967A82
:1014A000B300947E3400057A37008E9F117A1F00B6
:1014B0005E7E1801907A1F00627E34CCCD7E243F80
:1014C0004C7A1F006E7AB3006C7E3400057A3700C8
:1014D0006622CA3B7D737E3400C87A3701A3A9C750
:1014E000AF740E7E700112239C6D66BE740040289E
:1014F000057E704080027C7F7A7301A274111223F2
:101500008730E0107E3701A37D231B247A2701A3B7
:101510004D3378E87D162E1400007E0400017EB362
:1015200001A27E70011223727E7301A20A272D622E
:101530009D72BE704050B4D202A9D7AFDA3B22CA26
:10154000F8740E6C7712239C741112238720E153D8
:101550007E37015EBE34004028057EF04080027C6C
:10156000F77E0F01607C7F7420121E450A2F7E37A4
:10157000015E9D327A37015E0A157E1F01602D31B2
:101580007A1F01607E37015E4D33780F74117E70D3
:101590000A12239CE47AB3015D800874117E700204
:1015A00012239CDAF82275E900A9D7BA75EA00433C
:1015B000BA807593007594007591007592007595C9
:1015C0000075960075B10075B20075B30075B40072
:1015D00075C90075CA0075CB0075CC0075E1007542
:1015E000E2001212D543AF8012145D121D91122435
:1015F0004B1223E3D2AF7EB3015CB404F9C2C02224
:101600007EB30152B480227EB30155701C7EB301BB
:101610005470167EB3015770107EB30156700A7E67
:10162000370158BE34000168030224107EB3015C08
:10163000B4040A7E3413D37E2400FF80087E341362
:10164000D17E2400FF7A1F01607E3400017A3701C9
:101650005E0223D2CA3B7F707CF57CE67CD77CCBD4
:10166000CA7B0A366D222F110A1F6D001208ABDAF1
:101670000B120FF61222317405900004F074A8903A
:101680000005F09000067AEBC09000077AEBD0904E
:1016900000087AEBE09000097AEBF07E34000A1241
:1016A00014D2DA3B227E37009ABE340001781D6DD9
:1016B000337A37009A7E3400057A3701A57E180008
:1016C000147E14999A7E043E991222AA7E3700B69F
:1016D000BE340001781D6D337A3700B67E340005C4
:1016E0007A3701A77E1800147E14CCCD7E043F4CBF
:1016F0000222C122740E6C7712239C74111223876C
:1017000030E03D7E0F01607420121CB60A1B7E275C
:10171000015E9D217A27015E7E1F01602D317A1FB7
:1017200001607E37015E4D33780E74117E70481271
:10173000239CE47AB3015D2274117E704002239CE5
:1017400022CA797A0F00FA12224A7453900004F0E8
:10175000E4900005F0900006F0900007F07E340061
:10176000FA7E2400007A1F019E7E1400087E040089
:10177000017E1F00FA1202117D732E7400087D375E
:101780000B340A371214D27D37DA7922CAF87CFB7F
:10179000BEF03B28037EF03B744C900000F0744593
:1017A000900001F07444900002F07428900003F05F
:1017B0009000047AEBF00A3FCA397F107E140005CE
:1017C0007E040001121F0B1BFD0A3F2E3400050A88
:1017D000371214D2DAF822CAF87CFBBEF03B280399
:1017E0007EF03B744C900000F07445900001F07462
:1017F00044900002F07440900003F09000047AEBF3
:10180000F00A3FCA397F107E1400057E04000112E1
:101810001F0B1BFD0A3F2E3400050A371214D2DAC3
:10182000F822CAF87EB3015270237EB30157701DAF
:101830007EB3015670177EB3015570117EF30154CB
:10184000BEF08050087E3701584D336805122410D1
:101850008017E47C7F12239C4CFF68047403800291
:1018600074027AB3015C12242CDAF822E46C771249
:10187000239C74027AB3015CE47AB3015D740E7E3A
:10188000700112239C74117E704812239C740E7E8A
:10189000700212239C74117E704812239C740E7E79
:1018A000700112239C74147E709012239C740E6C31
:1018B0007702239CCAF86CFF80367E0F001C7A0FDB
:1018C000017E740AACBF49F5002549E5002349357E
:1018D0000029492500272F17BF0140127E1F017ED6
:1018E00059350029592500274935002199340BF035
:1018F0007E73005DBC7F38C2DAF8227CA77C7B74E3
:101900004C900000F07445900001F0744490000287
:10191000F07428900003F07402900004F07CB75437
:10192000077E44000160053E441478FB7CB99000BA
:1019300005F09000067AEBA07E3400070214D27CFA
:10194000A77C7B744C900000F07445900001F0740B
:1019500044900002F07440900003F0740290000480
:10196000F07CB754077E44000160053E441478FBC8
:101970007CB9900005F09000067AEBA07E34000759
:101980000214D27C6B744C900000F07445900001FE
:10199000F07444900002F07428900003F0740290F8
:1019A0000004F0E4900005F07CB65407C40354F83A
:1019B0007C6B4E60807CB754074CB6900006F07E7E
:1019C0003400070214D27C6B744C900000F0744514
:1019D000900001F07444900002F07440900003F015
:1019E0007402900004F0E4900005F07CB65407C443
:1019F0000354F87C6B4E60807CB754074CB6900063
:101A000006F07E3400070214D2CA3B7CF57CE67CEB
:101A1000D77CCB7C7EAC7F120F57122218740590B6
:101A20000004F074C8900005F09000067AEBC090B6
:101A300000077AEBD09000087AEBE09000097AEB8F
:101A4000F07E34000A1214D2DA3B227C6B744C9084
:101A50000000F07445900001F07444900002F074AE
:101A600028900003F07402900004F0E4900005F068
:101A70005E60077CB6C40354F87C6B7CB754074C9B
:101A8000B6900006F07E3400070214D27C6B744CD2
:101A9000900000F07445900001F07444900002F052
:101AA0007440900003F07402900004F0E49000058C
:101AB000F05E60077CB6C40354F87C6B7CB75407B7
:101AC0004CB6900006F07E3400070214D2CAF87CAF
:101AD000FB7A1F019A12224A744C900004F07401A0
:101AE000900005F09000067AEBF0E4900007F07E9D
:101AF0000F019A7E3400087E240001791100021B38
:101B00001A007E34000C1214D2DAF822CA3B7F305D
:101B10007A7301AC7AB301AB12241E0B347F03122B
:101B20000FF61222317403900004F074A7900005A0
:101B3000F07EB301AB900006F07EB301AC900007DD
:101B4000F07E3400081214D2DA3B227584017E4400
:101B5000041FE47A49B01B4478F97EF801AC7E0496
:101B600000FF7E14245E0B0A405D44681A69200061
:101B7000020B0E0B44800A7E0BB07A29B00B240BAB
:101B80000C1B4478F280DF0224437EB3015CB40472
:101B90001D7EB30152B481167EB3015570107EB321
:101BA0000157700A7E370158BE34000168030224D1
:101BB000107E3413D17E2400FF7A1F01607E340032
:101BC000017A37015E0223D2CA3B7D727CCB12229E
:101BD000187406900004F074C6900005F07401902B
:101BE0000006F09000077AEBC09000087AEB707E58
:101BF0003400097E2400011B1A707E34000B12147D
:101C0000D2DA3B22CA3B7D727CCB1222187406903A
:101C10000004F074C6900005F07402900006F09085
:101C200000077AEBC09000087AEB707E3400097EE2
:101C30002400011B1A707E34000B1214D2DA3B22EE
:101C40007E73001B0A3709B3000812231A7EB30003
:101C50001B7E34000160053E341478FB7CB764FFC2
:101C600012231AD2B5C2B57EB3001B047AB3001B8F
:101C7000BEB0084005E47AB3001B22CA3B7D727CEB
:101C8000CB1222187406900004F074C6900005F080
:101C9000E4900006F09000077AEBC09000087AEB21
:101CA000707E3400097E2400011B1A707E34000B04
:101CB0001214D2DA3B22CA3B7F30CAB80BFD74162D
:101CC0001223877AFBB039BFFFFF800C29BFFFFECC
:101CD0001223877A3BB00B747EFBA07CBA147AFB8C
:101CE000B04CAA78E729BFFFFF9EF80003DA3B2239
:101CF000CA3B12224A7443900004F0E4900005F0BD
:101D0000900006F0900007F07E340008CA397F107A
:101D10007E1400087E040001121F0B1BFD7E3400A0
:101D2000101214D2DA3B22CA3B7F3112224A744489
:101D3000900004F07401900005F0E4900006F0902B
:101D40000007F07E3400087E240001797100021B38
:101D50001A607E34000C1214D2DA3B227A37017AF0
:101D60007E34017B7E2400007E1B307E34017C7E2D
:101D70002400007A1B307E34017A7E2400007E1B12
:101D8000307E34017D7E2400007A1B307E37017C5A
:101D900022D2B3D2B2A2B2E4330A3B6D227A1F0040
:101DA000BA74017AB3009C7AB3009DA2B3E4330AFB
:101DB0003B7A1F00BA74017AB300B87AB300B92233
:101DC000CAF8740E7E700112239C74111223877C52
:101DD000FB30E50874117E704012239C7CBF30E21A
:101DE0000774116C7712239CC202DAF822CA797A3E
:101DF0000F01267E3401267E2400007A1F019E7E7C
:101E00001400007E0400017E1F01261202117D7362
:101E10000A371214D27D37DA7922CAF8740E7E702E
:101E20000212239C74111223877CFB30E508741185
:101E30007E704012239C7CBF30E20774116C7712D5
:101E4000239CDAF822CA3BCA787F30CAB8800B7E5E
:101E5000FBB07E3B700B7412239C29AFFFFF7CBA52
:101E60001439BFFFFF4CAA78E61BFDDA3B22CAF803
:101E70007CFB1222317403900004F074A3900005DF
:101E8000F07402900006F09000077AEBF07E3400C8
:101E9000081214D2DAF8227EB3015CB4041B7EB3BC
:101EA0000152B401147EB30155700E7EB301577018
:101EB000087E3701584D33680302241002242C7E1B
:101EC000B3015CB404097EB30152BEB0A168030241
:101ED00024107E1801897A1F01607E3701587A37F5
:101EE000015E0223D27EB3015CB404097EB30152C9
:101EF000BEB02168030224107E1801897A1F016098
:101F00007E3701587A37015E0224027F217F707F7D
:101F100010800A7E2B307A1B300B540B34691FFF64
:101F2000FD7D011B04790FFFFD4D1178E67F17221F
:101F3000CA796D777E14001CAD172E14009A6D00BF
:101F40007D3712090F0B74BE74000240E71216A50C
:101F5000DA7922CAF87CFB1222187402900004F08D
:101F600074C5900005F09000067AEBF07E3400070F
:101F70001214D2DAF822CAF87CFB122218740290EA
:101F80000004F074C4900005F09000067AEBF07E37
:101F90003400071214D2DAF822CAF87CFB1222317C
:101FA0007402900004F074A5900005F09000067A89
:101FB000EBF07E3400071214D2DAF822801200000F
:101FC0000000000000000000000000000000000011
:101FD0007D231B344D2278E62212221874029000D1
:101FE00004F074C7900005F07401900006F07E3490
:101FF00000070214D21222187402900004F074C078
:10200000900005F07401900006F07E340007021481
:10201000D21222317402900004F074A3900005F0F3
:102020007401900006F07E3400070214D2122231AF
:102030007402900004F074A4900005F07401900004
:1020400006F07E3400070214D212221874029000A7
:1020500004F074C2900005F07401900006F07E3424
:1020600000070214D21222317402900004F074A20C
:10207000900005F07402900006F07E340007021410
:10208000D21222187402900004F074C1900005F07E
:102090007401900006F07E3400070214D21222313F
:1020A0007402900004F074A0900005F07401900098
:1020B00006F07E3400070214D2122231740290001E
:1020C00004F074A2900005F07401900006F07E34D4
:1020D00000070214D21222317402900004F074A19D
:1020E000900005F07401900006F07E3400070214A1
:1020F000D27EB3015324DF680A14680A0BB1780951
:10210000021EE5021EBF02233002241012221874A0
:1021100002900004F074C0900005F0E4900006F016
:102120007E3400070214D21222317402900004F0AF
:1021300074A4900005F0E4900006F07E34000702DD
:1021400014D21222187402900004F074C790000593
:10215000F0E4900006F07E3400070214D21222311F
:102160007402900004F074A0900005F0E490000662
:10217000F07E3400070214D212223174029000045F
:10218000F074A3900005F0E4900006F07E340007A0
:102190000214D21222187402900004F074C290004B
:1021A00005F0E4900006F07E3400070214D21222FB
:1021B000187402900004F074C1900005F0E49000DF
:1021C00006F07E3400070214D2122231740290000D
:1021D00004F074A1900005F0E4900006F07E340055
:1021E000070214D21222317402900004F074A290FB
:1021F0000005F0E4900006F07E3400070214D2CA15
:10220000F80A5B2E540020121CB67CFB74146C7709
:1022100012239C7CBFDAF822744F900000F0744CBB
:10222000900001F07445900002F07480900003F07B
:1022300022744C900000F07443900001F0744490BC
:102240000002F07480900003F0227437900000F0D8
:102250007453900001F07445900002F074479000B0
:1022600003F022A9C7AF740E7E700112239C741470
:102270006C7712239CC200A9D7AF22CA797D7380E4
:10228000077E3403E8121FBC7D371B744D3378F191
:10229000DA79227A1F00627A0F006E74017AB30035
:1022A0006C7E3701A97A370066227A1F00767A0F92
:1022B000008274017AB300807E3701A57A37007AF4
:1022C000227A1F008A7A0F009674017AB300947EF6
:1022D0003701A77A37008E227E08007212112E7EF7
:1022E0001F00724D237803D38001C39280227E08A1
:1022F000008612112E7E1F00864D237803D38001A5
:10230000C39281227E08005E12112E7E1F005E4D58
:10231000237803D38001C392C8227C6B6C773E6024
:10232000A2D792B4D2B2C2B20B70BE700840EF22F4
:102330007EB3015CB404097EB30152BEB0216803D0
:1023400002241002242C1222317401900004F07433
:10235000A6900005F07E3400060214D212221874F2
:1023600001900004F074C3900005F07E3400060272
:1023700014D27CA77C7B0A5A2E540020121E45746E
:10238000117E700102239C7CABE5FC20E7FB7CBA4C
:102390004480F5FCE5FC20E7FBE5EC227CA77C7B98
:1023A000E5FC20E7FB7CB7547FF5FC7AA1EC227EAC
:1023B0000800107E3424D17E2400FF1201F1020AAD
:1023C0006D3F065B4F666D7D077F6F777C395E7969
:1023D000714074037AB3015D74117E704012239CC6
:1023E00002153F438E0475D7D075D68A438E1043AD
:1023F000AF0422CA1B7E1F001C0B1C7A1F001CDAB4
:102400001B3274047AB3015D74117E704002239C08
:1024100074057AB3015D74117E706002239C6D3384
:1024200080020B347E0BB00B1470F722E47AB301F8
:102430005D74117E704802239C1224527E1403E8BE
:102440000208BC1215A61218B480FB74067AB300F9
:102450005D227E1F001C2202241028302900000467
:10246000016600FF24DB0004016A00000000000494
:10247000016E000000000004001C000000000008C5
:1024800000080000000000000000003C002122D8ED
:10249000000000050000000022EE00000005000022
:1024A0000000230400000005000000001F300000B1
:1024B00000050000000023AF0000006400000000E1
:1024C0001C4000000002000000000001015B000051
:1024D00000452D2D46312E323334004053544349AC
:0424E0005350230032
:00000001FF
